{"contracts/ClubFundingDAO.sol":{"ClubFundingDAO":{"abi":[{"inputs":[],"stateMutability":"nonpayable","type":"constructor"},{"anonymous":false,"inputs":[{"indexed":true,"internalType":"uint256","name":"proposalID","type":"uint256"},{"indexed":true,"internalType":"address","name":"clubAddress","type":"address"},{"indexed":false,"internalType":"uint256","name":"amount","type":"uint256"},{"indexed":false,"internalType":"string","name":"clubName","type":"string"}],"name":"FundsReleased","type":"event"},{"anonymous":false,"inputs":[{"indexed":true,"internalType":"uint256","name":"proposalID","type":"uint256"},{"indexed":false,"internalType":"string","name":"clubName","type":"string"},{"indexed":false,"internalType":"uint256","name":"requestedAmount","type":"uint256"},{"indexed":false,"internalType":"uint256","name":"yesVotes","type":"uint256"},{"indexed":false,"internalType":"uint256","name":"noVotes","type":"uint256"}],"name":"ProposalApproved","type":"event"},{"anonymous":false,"inputs":[{"indexed":true,"internalType":"uint256","name":"proposalID","type":"uint256"},{"indexed":false,"internalType":"string","name":"clubName","type":"string"},{"indexed":false,"internalType":"string","name":"title","type":"string"},{"indexed":false,"internalType":"uint256","name":"requestedAmount","type":"uint256"},{"indexed":true,"internalType":"address","name":"clubAddress","type":"address"},{"indexed":false,"internalType":"uint256","name":"votingEndBlock","type":"uint256"}],"name":"ProposalCreated","type":"event"},{"anonymous":false,"inputs":[{"indexed":true,"internalType":"uint256","name":"proposalID","type":"uint256"},{"indexed":false,"internalType":"string","name":"clubName","type":"string"},{"indexed":false,"internalType":"uint256","name":"yesVotes","type":"uint256"},{"indexed":false,"internalType":"uint256","name":"noVotes","type":"uint256"},{"indexed":false,"internalType":"string","name":"reason","type":"string"}],"name":"ProposalRejected","type":"event"},{"anonymous":false,"inputs":[{"indexed":false,"internalType":"uint256","name":"amount","type":"uint256"}],"name":"TreasuryFunded","type":"event"},{"anonymous":false,"inputs":[{"indexed":true,"internalType":"uint256","name":"proposalID","type":"uint256"},{"indexed":true,"internalType":"address","name":"voter","type":"address"},{"indexed":false,"internalType":"bool","name":"choice","type":"bool"},{"indexed":false,"internalType":"uint256","name":"currentYesVotes","type":"uint256"},{"indexed":false,"internalType":"uint256","name":"currentNoVotes","type":"uint256"}],"name":"VoteCast","type":"event"},{"anonymous":false,"inputs":[{"indexed":true,"internalType":"address","name":"voter","type":"address"}],"name":"VoterRegistered","type":"event"},{"anonymous":false,"inputs":[{"indexed":true,"internalType":"address","name":"voter","type":"address"}],"name":"VoterUnregistered","type":"event"},{"inputs":[],"name":"QUORUM_PERCENTAGE","outputs":[{"internalType":"uint256","name":"","type":"uint256"}],"stateMutability":"view","type":"function"},{"inputs":[],"name":"VOTING_PERIOD_BLOCKS","outputs":[{"internalType":"uint256","name":"","type":"uint256"}],"stateMutability":"view","type":"function"},{"inputs":[],"name":"admin","outputs":[{"internalType":"address","name":"","type":"address"}],"stateMutability":"view","type":"function"},{"inputs":[{"internalType":"string","name":"_clubName","type":"string"},{"internalType":"string","name":"_title","type":"string"},{"internalType":"string","name":"_description","type":"string"},{"internalType":"uint256","name":"_requestedAmount","type":"uint256"},{"internalType":"address","name":"_clubAddress","type":"address"}],"name":"createProposal","outputs":[],"stateMutability":"nonpayable","type":"function"},{"inputs":[{"internalType":"uint256","name":"_proposalID","type":"uint256"}],"name":"finalizeProposal","outputs":[],"stateMutability":"nonpayable","type":"function"},{"inputs":[],"name":"fundTreasury","outputs":[],"stateMutability":"payable","type":"function"},{"inputs":[],"name":"getGovernanceParams","outputs":[{"internalType":"uint256","name":"votingPeriodBlocks","type":"uint256"},{"internalType":"uint256","name":"quorumPercentage","type":"uint256"},{"internalType":"uint256","name":"totalVoters","type":"uint256"}],"stateMutability":"view","type":"function"},{"inputs":[{"internalType":"uint256","name":"_proposalID","type":"uint256"}],"name":"getProposal","outputs":[{"components":[{"internalType":"uint256","name":"id","type":"uint256"},{"internalType":"string","name":"clubName","type":"string"},{"internalType":"string","name":"title","type":"string"},{"internalType":"string","name":"description","type":"string"},{"internalType":"uint256","name":"requestedAmount","type":"uint256"},{"internalType":"address","name":"clubAddress","type":"address"},{"internalType":"uint256","name":"createdAtBlock","type":"uint256"},{"internalType":"uint256","name":"votingStartBlock","type":"uint256"},{"internalType":"uint256","name":"votingEndBlock","type":"uint256"},{"internalType":"uint256","name":"yesVotes","type":"uint256"},{"internalType":"uint256","name":"noVotes","type":"uint256"},{"internalType":"uint256","name":"totalVoters","type":"uint256"},{"internalType":"enum ClubFundingDAO.ProposalState","name":"state","type":"uint8"},{"internalType":"bool","name":"fundsReleased","type":"bool"}],"internalType":"struct ClubFundingDAO.Proposal","name":"","type":"tuple"}],"stateMutability":"view","type":"function"},{"inputs":[{"internalType":"uint256","name":"_proposalID","type":"uint256"}],"name":"getProposalState","outputs":[{"internalType":"string","name":"","type":"string"}],"stateMutability":"view","type":"function"},{"inputs":[],"name":"getTreasuryInfo","outputs":[{"internalType":"uint256","name":"available","type":"uint256"},{"internalType":"uint256","name":"allocated","type":"uint256"},{"internalType":"uint256","name":"totalBalance","type":"uint256"}],"stateMutability":"view","type":"function"},{"inputs":[{"internalType":"uint256","name":"_proposalID","type":"uint256"}],"name":"getVoteCounts","outputs":[{"internalType":"uint256","name":"yes","type":"uint256"},{"internalType":"uint256","name":"no","type":"uint256"},{"internalType":"uint256","name":"totalVoters","type":"uint256"}],"stateMutability":"view","type":"function"},{"inputs":[{"internalType":"uint256","name":"_proposalID","type":"uint256"},{"internalType":"address","name":"_voter","type":"address"}],"name":"hasUserVoted","outputs":[{"internalType":"bool","name":"","type":"bool"}],"stateMutability":"view","type":"function"},{"inputs":[{"internalType":"uint256","name":"","type":"uint256"},{"internalType":"address","name":"","type":"address"}],"name":"hasVoted","outputs":[{"internalType":"bool","name":"","type":"bool"}],"stateMutability":"view","type":"function"},{"inputs":[],"name":"proposalCount","outputs":[{"internalType":"uint256","name":"","type":"uint256"}],"stateMutability":"view","type":"function"},{"inputs":[{"internalType":"uint256","name":"","type":"uint256"}],"name":"proposals","outputs":[{"internalType":"uint256","name":"id","type":"uint256"},{"internalType":"string","name":"clubName","type":"string"},{"internalType":"string","name":"title","type":"string"},{"internalType":"string","name":"description","type":"string"},{"internalType":"uint256","name":"requestedAmount","type":"uint256"},{"internalType":"address","name":"clubAddress","type":"address"},{"internalType":"uint256","name":"createdAtBlock","type":"uint256"},{"internalType":"uint256","name":"votingStartBlock","type":"uint256"},{"internalType":"uint256","name":"votingEndBlock","type":"uint256"},{"internalType":"uint256","name":"yesVotes","type":"uint256"},{"internalType":"uint256","name":"noVotes","type":"uint256"},{"internalType":"uint256","name":"totalVoters","type":"uint256"},{"internalType":"enum ClubFundingDAO.ProposalState","name":"state","type":"uint8"},{"internalType":"bool","name":"fundsReleased","type":"bool"}],"stateMutability":"view","type":"function"},{"inputs":[{"internalType":"address","name":"_voter","type":"address"}],"name":"registerVoter","outputs":[],"stateMutability":"nonpayable","type":"function"},{"inputs":[{"internalType":"address[]","name":"_voters","type":"address[]"}],"name":"registerVotersBatch","outputs":[],"stateMutability":"nonpayable","type":"function"},{"inputs":[{"internalType":"address","name":"","type":"address"}],"name":"registeredVoters","outputs":[{"internalType":"bool","name":"","type":"bool"}],"stateMutability":"view","type":"function"},{"inputs":[],"name":"totalFundsAllocated","outputs":[{"internalType":"uint256","name":"","type":"uint256"}],"stateMutability":"view","type":"function"},{"inputs":[],"name":"totalFundsAvailable","outputs":[{"internalType":"uint256","name":"","type":"uint256"}],"stateMutability":"view","type":"function"},{"inputs":[],"name":"totalRegisteredVoters","outputs":[{"internalType":"uint256","name":"","type":"uint256"}],"stateMutability":"view","type":"function"},{"inputs":[{"internalType":"address","name":"_voter","type":"address"}],"name":"unregisterVoter","outputs":[],"stateMutability":"nonpayable","type":"function"},{"inputs":[{"internalType":"uint256","name":"_proposalID","type":"uint256"},{"internalType":"bool","name":"_choice","type":"bool"}],"name":"vote","outputs":[],"stateMutability":"nonpayable","type":"function"},{"inputs":[{"internalType":"uint256","name":"_proposalID","type":"uint256"}],"name":"withdrawFunds","outputs":[],"stateMutability":"nonpayable","type":"function"},{"stateMutability":"payable","type":"receive"}],"evm":{"bytecode":{"linkReferences":{},"object":"6080806040523461003c576000600181905560058190556006819055600781905580546001600160a01b03191633179055611de290816100428239f35b600080fdfe6080806040526004361015610056575b50361561001b57600080fd5b61002734600654611bee565b6006557fef7aff843f3420b45d9d058ff62be0d87a95132dea4a67b18925283ba05647dc6020604051348152a1005b60003560e01c908162aa74641461195757508063013cf08b14611840578063058702a114611822578063078f6208146117f557806308356e0014611702578063155dd5ee146114a157806338db6dd31461139257806343859632146113455780635652077c1461109b578063752d74d1146109575780637ed17751146108735780638a241f4c146108165780639080936f146107d6578063a29dfff3146107b9578063a9ff6df11461077a578063ac1f7ca11461075c578063b9c1868514610709578063c2939471146106d5578063c7f758a81461047d578063c9d27afe1461022d578063da35c6641461020f578063dc296ae1146101b4578063ee8a7c15146101985763f851a4401461016a573861000f565b34610193576000366003190112610193576000546040516001600160a01b039091168152602090f35b600080fd5b34610193576000366003190112610193576020604051601e8152f35b34610193576040366003190112610193576004356101d0611b10565b906101de6001548210611bfb565b600052600360205260406000209060018060a01b0316600052602052602060ff604060002054166040519015158152f35b34610193576000366003190112610193576020600154604051908152f35b34610193576040366003190112610193576004356024908135801515928382036101935761025e6001548410611bfb565b336000526020916004835260ff604060002054161561044057836000526002835260406000209160ff600c84015416600481101561042b576103e857600883015443116103a5578460005260038452604060002033600052845260ff604060002054166103625750600084815260038452604080822033835285529020805460ff191660011790551561034d57600981016102f98154611bdf565b90555b600b810161030a8154611bdf565b9055600a60098201549101549160405194855284015260408301527f77a255f45c79d26605c257d8dfc37f9a619f53963ddbed1e95aa0aab1c801cee60603393a3005b600a810161035b8154611bdf565b90556102fc565b83601e6064926040519262461bcd60e51b845260048401528201527f416c726561647920766f746564206f6e20746869732070726f706f73616c00006044820152fd5b8360176064926040519262461bcd60e51b845260048401528201527f566f74696e6720706572696f642068617320656e6465640000000000000000006044820152fd5b83601d6064926040519262461bcd60e51b845260048401528201527f50726f706f73616c206e6f7420696e20766f74696e6720706572696f640000006044820152fd5b50634e487b7160e01b60009081526021600452fd5b60405162461bcd60e51b815260048101849052601681840152752737ba1030903932b3b4b9ba32b932b2103b37ba32b960511b6044820152606490fd5b346101935760203660031901126101935760006101a060405161049f816119ac565b82815260606020820152606060408201526060808201528260808201528260a08201528260c08201528260e082015282610100820152826101208201528261014082015282610160820152826101808201520152600154610504600435918210611bfb565b60005260026020526040600020600c60405191610520836119ac565b8054835261053060018201611a07565b602084015261054160028201611a07565b604084015261055260038201611a07565b6060840152600481810154608085015260058201546001600160a01b031660a0850152600682015460c0850152600782015460e085015260088201546101008501526009820154610120850152600a820154610140850152600b8201546101608501529101549060ff821610156106bf578060ff80921661018084015260081c1615156101a0820152604051809160208252805160208301526101a061063d61060c60208401516101c060408701526101e0860190611aad565b610628604085015191601f199283888303016060890152611aad565b90606085015190868303016080870152611aad565b91608081015160a085015260018060a01b0360a08201511660c085015260c081015160e085015260e08101516101008501526101008101516101208501526101208101516101408501526101408101516101608501526101608101516101808501526106b161018082015183860190611aed565b015115156101c08301520390f35b634e487b7160e01b600052602160045260246000fd5b34610193576000366003190112610193576006546007546040805192835260208301919091524790820152606090f35b0390f35b60003660031901126101935734156107275761002734600654611bee565b60405162461bcd60e51b815260206004820152600d60248201526c09aeae6e840e6cadcc8408aa89609b1b6044820152606490fd5b34610193576000366003190112610193576020600654604051908152f35b34610193576020366003190112610193576001600160a01b0361079b611afa565b166000526004602052602060ff604060002054166040519015158152f35b3461019357600036600319011261019357602060405161c4e08152f35b34610193576020366003190112610193576107056108026004356107fd6001548210611bfb565b611cea565b604051918291602083526020830190611aad565b34610193576020366003190112610193576004356108376001548210611bfb565b600052600260205260406000206009810154610705600b600a840154930154604051938493846040919493926060820195825260208201520152565b346101935760203660031901126101935761088c611afa565b6000546001600160a01b0391906108a69083163314611b89565b1680600052600460205260ff604060002054161561092157806000526004602052604060002060ff198154169055600554801561090b57600019016005557f25fc2460244a2fff1d6879302ea1d6f3e684e599d76c012a22e42d5bb61cc5d7600080a2005b634e487b7160e01b600052601160045260246000fd5b60405162461bcd60e51b815260206004820152600e60248201526d139bdd081c9959da5cdd195c995960921b6044820152606490fd5b346101935760a03660031901126101935760043567ffffffffffffffff811161019357610988903690600401611b42565b60243567ffffffffffffffff8111610193576109a8903690600401611b42565b90604491823567ffffffffffffffff8111610193576109cb903690600401611b42565b608435929091906001600160a01b038416840361019357606494853515611058576001600160a01b0385161561101e57815115610fe657825115610fb257600654863511610f6f57506001549361c4e04301431161090b5760405193610a30856119ac565b85855282602086015283604086015260608501528535608085015260018060a01b03811660a08501524360c08501524360e085015261c4e04301610100850152600061012085015260006101408501526000610160850152600061018085015260006101a0850152846000526002602052604060002084518155602085015180519067ffffffffffffffff8211610db9578190610ad06001850154611972565b601f8111610f1c575b50602090601f8311600114610eaa57600092610e9f575b50508160011b916000199060031b1c19161760018201555b604085015180519067ffffffffffffffff8211610db9578190610b2e6002850154611972565b601f8111610e4c575b50602090601f8311600114610dda57600092610dcf575b50508160011b916000199060031b1c19161760028201555b606085015180519067ffffffffffffffff8211610db957610b8a6003840154611972565b601f8111610d72575b50602090601f8311600114610cff57600c93929160009183610cf4575b50508160011b916000199060031b1c19161760038201555b608086015160048201556005810160018060a01b0360a0880151166bffffffffffffffffffffffff60a01b82541617905560c0860151600682015560e0860151600782015561010086015160088201556101208601516009820155610140860151600a820155610160860151600b82015501936101808101519360048510156106bf5785610cc695610cd49360ff61ff006101a07f76292bb7e2503e8e04e1424e695ff7505f896fb50b910f71a30a90c3d30a38029b54930151151560081b1692169061ffff191617179055610ca18835600754611bee565b600755610caf600154611bdf565b600155604051948594608086526080860190611aad565b908482036020860152611aad565b953560408301524361c4e00160608301526001600160a01b0316940390a3005b015190508a80610bb0565b906003840160005260206000209160005b601f1985168110610d5a5750918391600193600c9695601f19811610610d41575b505050811b016003820155610bc8565b015160001960f88460031b161c191690558a8080610d31565b91926020600181928685015181550194019201610d10565b600384016000526020600020601f840160051c810160208510610db2575b601f830160051c82018110610da6575050610b93565b60008155600101610d90565b5080610d90565b634e487b7160e01b600052604160045260246000fd5b015190508980610b4e565b9250600284016000526020600020906000935b601f1984168510610e31576001945083601f19811610610e18575b505050811b016002820155610b66565b015160001960f88460031b161c19169055898080610e08565b81810151835560209485019460019093019290910190610ded565b909150600284016000526020600020601f840160051c810160208510610e98575b90849392915b601f830160051c82018110610e89575050610b37565b60008155859450600101610e73565b5080610e6d565b015190508980610af0565b9250600184016000526020600020906000935b601f1984168510610f01576001945083601f19811610610ee8575b505050811b016001820155610b08565b015160001960f88460031b161c19169055898080610ed8565b81810151835560209485019460019093019290910190610ebd565b909150600184016000526020600020601f840160051c810160208510610f68575b90849392915b601f830160051c82018110610f59575050610ad9565b60008155859450600101610f43565b5080610f3d565b85907f496e73756666696369656e742074726561737572792066756e647300000000006040519162461bcd60e51b835260206004840152601b6024840152820152fd5b85906d151a5d1b19481c995c5d5a5c995960921b6040519162461bcd60e51b835260206004840152600e6024840152820152fd5b85907110db1d58881b985b59481c995c5d5a5c995960721b6040519162461bcd60e51b83526020600484015260126024840152820152fd5b859073496e76616c696420636c7562206164647265737360601b6040519162461bcd60e51b83526020600484015260146024840152820152fd5b85907f416d6f756e74206d7573742062652067726561746572207468616e20300000006040519162461bcd60e51b835260206004840152601d6024840152820152fd5b346101935760208060031936011261019357600435906110be6001548310611bfb565b81600052600281526040600020600881015443111561130057600c8101805460ff811660048110156106bf576112bb57600554601e810290808204601e149015171561090b5760649004600b840154106000146111ab57507f998833b30b605b93f7766ecf44d7197f231d0b90f0fe2f095bdb6cb72aa2e80692604091600260ff198254161790556111566004840154600754611c47565b6007556d145d5bdc9d5b481b9bdd081b595d60921b600984015491600a85015461118d855196608088526001608089019101611c54565b93828701528486015284830392836060870152600e815201520190a2005b6009830191825491600a85019283541060001461122b5750917f0ddff51fd8dbfe33ddf85a9e8eecce2a27ff3aa39d0e754d4a9c41ad2642a54c94916112189493600160ff1982541617905560048401549154905491604051958695608087526001608088019101611c54565b93850152604084015260608301520390a2005b94604093704d616a6f7269747920766f746564204e4f60781b9260027f998833b30b605b93f7766ecf44d7197f231d0b90f0fe2f095bdb6cb72aa2e8069860ff19161790556112806004870154600754611c47565b60075554925461129d855196608088526001608089019101611c54565b938287015284860152848303928360608701526011815201520190a2005b60405162461bcd60e51b815260048101859052601a60248201527f50726f706f73616c20616c72656164792066696e616c697a65640000000000006044820152606490fd5b60405162461bcd60e51b815260048101839052601760248201527f566f74696e6720706572696f64206e6f7420656e6465640000000000000000006044820152606490fd5b346101935760403660031901126101935761135e611b10565b600435600052600360205260406000209060018060a01b0316600052602052602060ff604060002054166040519015158152f35b34610193576020366003190112610193576113ab611afa565b6000546001600160a01b0391906113c59083163314611b89565b16801561146a5780600052600460205260ff60406000205416611430578060005260046020526040600020600160ff19825416179055611406600554611bdf565b6005557fb6be2187d059cc2a55fe29e0e503b566e1e0f8c8780096e185429350acffd3dd600080a2005b60405162461bcd60e51b8152602060048201526012602482015271105b1c9958591e481c9959da5cdd195c995960721b6044820152606490fd5b60405162461bcd60e51b815260206004820152600f60248201526e496e76616c6964206164647265737360881b6044820152606490fd5b3461019357602080600319360112610193576004356114c36001548210611bfb565b8060005260028252604060002091600c83019283549360ff851660048110156106bf576001036116c5576005820180546001600160a01b039290831633036116805760ff8760081c16611642574790600485019788548093106115fd5761ffff19166101031790556007546115389190611c47565b6007556000808080858554168a54905af13d156115f8573d61155981611b26565b9061156760405192836119e5565b81526000863d92013e5b156115c1577f6b9820c25130dcd241e9a9fe5ab064d0f681180254293fe6453e6b13cfb0d65a9392916115bc9154169554916040805194859485528401526001604084019101611c54565b0390a3005b60405162461bcd60e51b815260048101859052600f60248201526e151c985b9cd9995c8819985a5b1959608a1b6044820152606490fd5b611571565b60405162461bcd60e51b815260048101889052601d60248201527f496e73756666696369656e7420636f6e74726163742062616c616e63650000006044820152606490fd5b60405162461bcd60e51b8152600481018690526016602482015275119d5b991cc8185b1c9958591e481c995b19585cd95960521b6044820152606490fd5b60405162461bcd60e51b815260048101869052601c60248201527f4f6e6c7920636c75622063616e2077697468647261772066756e6473000000006044820152606490fd5b60405162461bcd60e51b8152600481018490526015602482015274141c9bdc1bdcd85b081b9bdd08185c1c1c9bdd9959605a1b6044820152606490fd5b34610193576020806003193601126101935767ffffffffffffffff600435818111610193573660238201121561019357806004013591821161019357600560243684831b8401820111610193576000546001600160a01b0393906117699085163314611b89565b60005b85811061177557005b8281851b830101359085821680920361019357816117ad92600052600489526040600020805460ff8116156117b2575b505050611bdf565b61176c565b60ff1916600117905585546117c690611bdf565b86557fb6be2187d059cc2a55fe29e0e503b566e1e0f8c8780096e185429350acffd3dd600080a28880806117a5565b346101935760003660031901126101935760606005546040519061c4e08252601e60208301526040820152f35b34610193576000366003190112610193576020600754604051908152f35b34610193576020366003190112610193576004356000526002602052604060002080546001820161187090611a07565b9161187d60028201611a07565b61188960038301611a07565b91600481015492600160a01b6001900360058301541660068301546007840154600885015491600986015493600a87015495600b88015497600c0154986040519c8d9c8d528c6101c06020819201528d016118e391611aad565b8c810360408e01526118f491611aad565b8b810360608d015261190591611aad565b9860808b015260a08a015260c089015260e0880152610100870152610120860152610140850152610160840152610180830160ff82169061194591611aed565b60081c60ff1615156101a08301520390f35b34610193576000366003190112610193576020906005548152f35b90600182811c921680156119a2575b602083101461198c57565b634e487b7160e01b600052602260045260246000fd5b91607f1691611981565b6101c0810190811067ffffffffffffffff821117610db957604052565b6040810190811067ffffffffffffffff821117610db957604052565b90601f8019910116810190811067ffffffffffffffff821117610db957604052565b9060405191826000825492611a1b84611972565b908184526001948581169081600014611a8a5750600114611a47575b5050611a45925003836119e5565b565b9093915060005260209081600020936000915b818310611a72575050611a4593508201013880611a37565b85548884018501529485019487945091830191611a5a565b915050611a4594506020925060ff191682840152151560051b8201013880611a37565b919082519283825260005b848110611ad9575050826000602080949584010152601f8019910116010190565b602081830181015184830182015201611ab8565b9060048210156106bf5752565b600435906001600160a01b038216820361019357565b602435906001600160a01b038216820361019357565b67ffffffffffffffff8111610db957601f01601f191660200190565b81601f8201121561019357803590611b5982611b26565b92611b6760405194856119e5565b8284526020838301011161019357816000926020809301838601378301015290565b15611b9057565b60405162461bcd60e51b815260206004820152602160248201527f4f6e6c792061646d696e2063616e2063616c6c20746869732066756e6374696f6044820152603760f91b6064820152608490fd5b600019811461090b5760010190565b9190820180921161090b57565b15611c0257565b60405162461bcd60e51b815260206004820152601760248201527f50726f706f73616c20646f6573206e6f742065786973740000000000000000006044820152606490fd5b9190820391821161090b57565b9060009291805491611c6583611972565b918282526001938481169081600014611cc75750600114611c87575b50505050565b90919394506000526020928360002092846000945b838610611cb3575050505001019038808080611c81565b805485870183015294019385908201611c9c565b9294505050602093945060ff191683830152151560051b01019038808080611c81565b600052600260205260ff600c604060002001541660048110156106bf578015611d895760018114611d6457600214611d4057604051611d28816119c9565b600881526711561150d555115160c21b602082015290565b604051611d4c816119c9565b60088152671491529150d5115160c21b602082015290565b50604051611d71816119c9565b60088152671054141493d5915160c21b602082015290565b50604051611d96816119c9565b600681526541435449564560d01b60208201529056fea26469706673582212203f97641889ea808e24c6c1620e386e33aae46c31e05ca8dbe8f0a34486ffe64a64736f6c63430008140033","opcodes":"PUSH1 0x80 DUP1 PUSH1 0x40 MSTORE CALLVALUE PUSH2 0x3C JUMPI PUSH1 0x0 PUSH1 0x1 DUP2 SWAP1 SSTORE PUSH1 0x5 DUP2 SWAP1 SSTORE PUSH1 0x6 DUP2 SWAP1 SSTORE PUSH1 0x7 DUP2 SWAP1 SSTORE DUP1 SLOAD PUSH1 0x1 PUSH1 0x1 PUSH1 0xA0 SHL SUB NOT AND CALLER OR SWAP1 SSTORE PUSH2 0x1DE2 SWAP1 DUP2 PUSH2 0x42 DUP3 CODECOPY RETURN JUMPDEST PUSH1 0x0 DUP1 REVERT INVALID PUSH1 0x80 DUP1 PUSH1 0x40 MSTORE PUSH1 0x4 CALLDATASIZE LT ISZERO PUSH2 0x56 JUMPI JUMPDEST POP CALLDATASIZE ISZERO PUSH2 0x1B JUMPI PUSH1 0x0 DUP1 REVERT JUMPDEST PUSH2 0x27 CALLVALUE PUSH1 0x6 SLOAD PUSH2 0x1BEE JUMP JUMPDEST PUSH1 0x6 SSTORE PUSH32 0xEF7AFF843F3420B45D9D058FF62BE0D87A95132DEA4A67B18925283BA05647DC PUSH1 0x20 PUSH1 0x40 MLOAD CALLVALUE DUP2 MSTORE LOG1 STOP JUMPDEST PUSH1 0x0 CALLDATALOAD PUSH1 0xE0 SHR SWAP1 DUP2 PUSH3 0xAA7464 EQ PUSH2 0x1957 JUMPI POP DUP1 PUSH4 0x13CF08B EQ PUSH2 0x1840 JUMPI DUP1 PUSH4 0x58702A1 EQ PUSH2 0x1822 JUMPI DUP1 PUSH4 0x78F6208 EQ PUSH2 0x17F5 JUMPI DUP1 PUSH4 0x8356E00 EQ PUSH2 0x1702 JUMPI DUP1 PUSH4 0x155DD5EE EQ PUSH2 0x14A1 JUMPI DUP1 PUSH4 0x38DB6DD3 EQ PUSH2 0x1392 JUMPI DUP1 PUSH4 0x43859632 EQ PUSH2 0x1345 JUMPI DUP1 PUSH4 0x5652077C EQ PUSH2 0x109B JUMPI DUP1 PUSH4 0x752D74D1 EQ PUSH2 0x957 JUMPI DUP1 PUSH4 0x7ED17751 EQ PUSH2 0x873 JUMPI DUP1 PUSH4 0x8A241F4C EQ PUSH2 0x816 JUMPI DUP1 PUSH4 0x9080936F EQ PUSH2 0x7D6 JUMPI DUP1 PUSH4 0xA29DFFF3 EQ PUSH2 0x7B9 JUMPI DUP1 PUSH4 0xA9FF6DF1 EQ PUSH2 0x77A JUMPI DUP1 PUSH4 0xAC1F7CA1 EQ PUSH2 0x75C JUMPI DUP1 PUSH4 0xB9C18685 EQ PUSH2 0x709 JUMPI DUP1 PUSH4 0xC2939471 EQ PUSH2 0x6D5 JUMPI DUP1 PUSH4 0xC7F758A8 EQ PUSH2 0x47D JUMPI DUP1 PUSH4 0xC9D27AFE EQ PUSH2 0x22D JUMPI DUP1 PUSH4 0xDA35C664 EQ PUSH2 0x20F JUMPI DUP1 PUSH4 0xDC296AE1 EQ PUSH2 0x1B4 JUMPI DUP1 PUSH4 0xEE8A7C15 EQ PUSH2 0x198 JUMPI PUSH4 0xF851A440 EQ PUSH2 0x16A JUMPI CODESIZE PUSH2 0xF JUMP JUMPDEST CALLVALUE PUSH2 0x193 JUMPI PUSH1 0x0 CALLDATASIZE PUSH1 0x3 NOT ADD SLT PUSH2 0x193 JUMPI PUSH1 0x0 SLOAD PUSH1 0x40 MLOAD PUSH1 0x1 PUSH1 0x1 PUSH1 0xA0 SHL SUB SWAP1 SWAP2 AND DUP2 MSTORE PUSH1 0x20 SWAP1 RETURN JUMPDEST PUSH1 0x0 DUP1 REVERT JUMPDEST CALLVALUE PUSH2 0x193 JUMPI PUSH1 0x0 CALLDATASIZE PUSH1 0x3 NOT ADD SLT PUSH2 0x193 JUMPI PUSH1 0x20 PUSH1 0x40 MLOAD PUSH1 0x1E DUP2 MSTORE RETURN JUMPDEST CALLVALUE PUSH2 0x193 JUMPI PUSH1 0x40 CALLDATASIZE PUSH1 0x3 NOT ADD SLT PUSH2 0x193 JUMPI PUSH1 0x4 CALLDATALOAD PUSH2 0x1D0 PUSH2 0x1B10 JUMP JUMPDEST SWAP1 PUSH2 0x1DE PUSH1 0x1 SLOAD DUP3 LT PUSH2 0x1BFB JUMP JUMPDEST PUSH1 0x0 MSTORE PUSH1 0x3 PUSH1 0x20 MSTORE PUSH1 0x40 PUSH1 0x0 KECCAK256 SWAP1 PUSH1 0x1 DUP1 PUSH1 0xA0 SHL SUB AND PUSH1 0x0 MSTORE PUSH1 0x20 MSTORE PUSH1 0x20 PUSH1 0xFF PUSH1 0x40 PUSH1 0x0 KECCAK256 SLOAD AND PUSH1 0x40 MLOAD SWAP1 ISZERO ISZERO DUP2 MSTORE RETURN JUMPDEST CALLVALUE PUSH2 0x193 JUMPI PUSH1 0x0 CALLDATASIZE PUSH1 0x3 NOT ADD SLT PUSH2 0x193 JUMPI PUSH1 0x20 PUSH1 0x1 SLOAD PUSH1 0x40 MLOAD SWAP1 DUP2 MSTORE RETURN JUMPDEST CALLVALUE PUSH2 0x193 JUMPI PUSH1 0x40 CALLDATASIZE PUSH1 0x3 NOT ADD SLT PUSH2 0x193 JUMPI PUSH1 0x4 CALLDATALOAD PUSH1 0x24 SWAP1 DUP2 CALLDATALOAD DUP1 ISZERO ISZERO SWAP3 DUP4 DUP3 SUB PUSH2 0x193 JUMPI PUSH2 0x25E PUSH1 0x1 SLOAD DUP5 LT PUSH2 0x1BFB JUMP JUMPDEST CALLER PUSH1 0x0 MSTORE PUSH1 0x20 SWAP2 PUSH1 0x4 DUP4 MSTORE PUSH1 0xFF PUSH1 0x40 PUSH1 0x0 KECCAK256 SLOAD AND ISZERO PUSH2 0x440 JUMPI DUP4 PUSH1 0x0 MSTORE PUSH1 0x2 DUP4 MSTORE PUSH1 0x40 PUSH1 0x0 KECCAK256 SWAP2 PUSH1 0xFF PUSH1 0xC DUP5 ADD SLOAD AND PUSH1 0x4 DUP2 LT ISZERO PUSH2 0x42B JUMPI PUSH2 0x3E8 JUMPI PUSH1 0x8 DUP4 ADD SLOAD NUMBER GT PUSH2 0x3A5 JUMPI DUP5 PUSH1 0x0 MSTORE PUSH1 0x3 DUP5 MSTORE PUSH1 0x40 PUSH1 0x0 KECCAK256 CALLER PUSH1 0x0 MSTORE DUP5 MSTORE PUSH1 0xFF PUSH1 0x40 PUSH1 0x0 KECCAK256 SLOAD AND PUSH2 0x362 JUMPI POP PUSH1 0x0 DUP5 DUP2 MSTORE PUSH1 0x3 DUP5 MSTORE PUSH1 0x40 DUP1 DUP3 KECCAK256 CALLER DUP4 MSTORE DUP6 MSTORE SWAP1 KECCAK256 DUP1 SLOAD PUSH1 0xFF NOT AND PUSH1 0x1 OR SWAP1 SSTORE ISZERO PUSH2 0x34D JUMPI PUSH1 0x9 DUP2 ADD PUSH2 0x2F9 DUP2 SLOAD PUSH2 0x1BDF JUMP JUMPDEST SWAP1 SSTORE JUMPDEST PUSH1 0xB DUP2 ADD PUSH2 0x30A DUP2 SLOAD PUSH2 0x1BDF JUMP JUMPDEST SWAP1 SSTORE PUSH1 0xA PUSH1 0x9 DUP3 ADD SLOAD SWAP2 ADD SLOAD SWAP2 PUSH1 0x40 MLOAD SWAP5 DUP6 MSTORE DUP5 ADD MSTORE PUSH1 0x40 DUP4 ADD MSTORE PUSH32 0x77A255F45C79D26605C257D8DFC37F9A619F53963DDBED1E95AA0AAB1C801CEE PUSH1 0x60 CALLER SWAP4 LOG3 STOP JUMPDEST PUSH1 0xA DUP2 ADD PUSH2 0x35B DUP2 SLOAD PUSH2 0x1BDF JUMP JUMPDEST SWAP1 SSTORE PUSH2 0x2FC JUMP JUMPDEST DUP4 PUSH1 0x1E PUSH1 0x64 SWAP3 PUSH1 0x40 MLOAD SWAP3 PUSH3 0x461BCD PUSH1 0xE5 SHL DUP5 MSTORE PUSH1 0x4 DUP5 ADD MSTORE DUP3 ADD MSTORE PUSH32 0x416C726561647920766F746564206F6E20746869732070726F706F73616C0000 PUSH1 0x44 DUP3 ADD MSTORE REVERT JUMPDEST DUP4 PUSH1 0x17 PUSH1 0x64 SWAP3 PUSH1 0x40 MLOAD SWAP3 PUSH3 0x461BCD PUSH1 0xE5 SHL DUP5 MSTORE PUSH1 0x4 DUP5 ADD MSTORE DUP3 ADD MSTORE PUSH32 0x566F74696E6720706572696F642068617320656E646564000000000000000000 PUSH1 0x44 DUP3 ADD MSTORE REVERT JUMPDEST DUP4 PUSH1 0x1D PUSH1 0x64 SWAP3 PUSH1 0x40 MLOAD SWAP3 PUSH3 0x461BCD PUSH1 0xE5 SHL DUP5 MSTORE PUSH1 0x4 DUP5 ADD MSTORE DUP3 ADD MSTORE PUSH32 0x50726F706F73616C206E6F7420696E20766F74696E6720706572696F64000000 PUSH1 0x44 DUP3 ADD MSTORE REVERT JUMPDEST POP PUSH4 0x4E487B71 PUSH1 0xE0 SHL PUSH1 0x0 SWAP1 DUP2 MSTORE PUSH1 0x21 PUSH1 0x4 MSTORE REVERT JUMPDEST PUSH1 0x40 MLOAD PUSH3 0x461BCD PUSH1 0xE5 SHL DUP2 MSTORE PUSH1 0x4 DUP2 ADD DUP5 SWAP1 MSTORE PUSH1 0x16 DUP2 DUP5 ADD MSTORE PUSH22 0x2737BA1030903932B3B4B9BA32B932B2103B37BA32B9 PUSH1 0x51 SHL PUSH1 0x44 DUP3 ADD MSTORE PUSH1 0x64 SWAP1 REVERT JUMPDEST CALLVALUE PUSH2 0x193 JUMPI PUSH1 0x20 CALLDATASIZE PUSH1 0x3 NOT ADD SLT PUSH2 0x193 JUMPI PUSH1 0x0 PUSH2 0x1A0 PUSH1 0x40 MLOAD PUSH2 0x49F DUP2 PUSH2 0x19AC JUMP JUMPDEST DUP3 DUP2 MSTORE PUSH1 0x60 PUSH1 0x20 DUP3 ADD MSTORE PUSH1 0x60 PUSH1 0x40 DUP3 ADD MSTORE PUSH1 0x60 DUP1 DUP3 ADD MSTORE DUP3 PUSH1 0x80 DUP3 ADD MSTORE DUP3 PUSH1 0xA0 DUP3 ADD MSTORE DUP3 PUSH1 0xC0 DUP3 ADD MSTORE DUP3 PUSH1 0xE0 DUP3 ADD MSTORE DUP3 PUSH2 0x100 DUP3 ADD MSTORE DUP3 PUSH2 0x120 DUP3 ADD MSTORE DUP3 PUSH2 0x140 DUP3 ADD MSTORE DUP3 PUSH2 0x160 DUP3 ADD MSTORE DUP3 PUSH2 0x180 DUP3 ADD MSTORE ADD MSTORE PUSH1 0x1 SLOAD PUSH2 0x504 PUSH1 0x4 CALLDATALOAD SWAP2 DUP3 LT PUSH2 0x1BFB JUMP JUMPDEST PUSH1 0x0 MSTORE PUSH1 0x2 PUSH1 0x20 MSTORE PUSH1 0x40 PUSH1 0x0 KECCAK256 PUSH1 0xC PUSH1 0x40 MLOAD SWAP2 PUSH2 0x520 DUP4 PUSH2 0x19AC JUMP JUMPDEST DUP1 SLOAD DUP4 MSTORE PUSH2 0x530 PUSH1 0x1 DUP3 ADD PUSH2 0x1A07 JUMP JUMPDEST PUSH1 0x20 DUP5 ADD MSTORE PUSH2 0x541 PUSH1 0x2 DUP3 ADD PUSH2 0x1A07 JUMP JUMPDEST PUSH1 0x40 DUP5 ADD MSTORE PUSH2 0x552 PUSH1 0x3 DUP3 ADD PUSH2 0x1A07 JUMP JUMPDEST PUSH1 0x60 DUP5 ADD MSTORE PUSH1 0x4 DUP2 DUP2 ADD SLOAD PUSH1 0x80 DUP6 ADD MSTORE PUSH1 0x5 DUP3 ADD SLOAD PUSH1 0x1 PUSH1 0x1 PUSH1 0xA0 SHL SUB AND PUSH1 0xA0 DUP6 ADD MSTORE PUSH1 0x6 DUP3 ADD SLOAD PUSH1 0xC0 DUP6 ADD MSTORE PUSH1 0x7 DUP3 ADD SLOAD PUSH1 0xE0 DUP6 ADD MSTORE PUSH1 0x8 DUP3 ADD SLOAD PUSH2 0x100 DUP6 ADD MSTORE PUSH1 0x9 DUP3 ADD SLOAD PUSH2 0x120 DUP6 ADD MSTORE PUSH1 0xA DUP3 ADD SLOAD PUSH2 0x140 DUP6 ADD MSTORE PUSH1 0xB DUP3 ADD SLOAD PUSH2 0x160 DUP6 ADD MSTORE SWAP2 ADD SLOAD SWAP1 PUSH1 0xFF DUP3 AND LT ISZERO PUSH2 0x6BF JUMPI DUP1 PUSH1 0xFF DUP1 SWAP3 AND PUSH2 0x180 DUP5 ADD MSTORE PUSH1 0x8 SHR AND ISZERO ISZERO PUSH2 0x1A0 DUP3 ADD MSTORE PUSH1 0x40 MLOAD DUP1 SWAP2 PUSH1 0x20 DUP3 MSTORE DUP1 MLOAD PUSH1 0x20 DUP4 ADD MSTORE PUSH2 0x1A0 PUSH2 0x63D PUSH2 0x60C PUSH1 0x20 DUP5 ADD MLOAD PUSH2 0x1C0 PUSH1 0x40 DUP8 ADD MSTORE PUSH2 0x1E0 DUP7 ADD SWAP1 PUSH2 0x1AAD JUMP JUMPDEST PUSH2 0x628 PUSH1 0x40 DUP6 ADD MLOAD SWAP2 PUSH1 0x1F NOT SWAP3 DUP4 DUP9 DUP4 SUB ADD PUSH1 0x60 DUP10 ADD MSTORE PUSH2 0x1AAD JUMP JUMPDEST SWAP1 PUSH1 0x60 DUP6 ADD MLOAD SWAP1 DUP7 DUP4 SUB ADD PUSH1 0x80 DUP8 ADD MSTORE PUSH2 0x1AAD JUMP JUMPDEST SWAP2 PUSH1 0x80 DUP2 ADD MLOAD PUSH1 0xA0 DUP6 ADD MSTORE PUSH1 0x1 DUP1 PUSH1 0xA0 SHL SUB PUSH1 0xA0 DUP3 ADD MLOAD AND PUSH1 0xC0 DUP6 ADD MSTORE PUSH1 0xC0 DUP2 ADD MLOAD PUSH1 0xE0 DUP6 ADD MSTORE PUSH1 0xE0 DUP2 ADD MLOAD PUSH2 0x100 DUP6 ADD MSTORE PUSH2 0x100 DUP2 ADD MLOAD PUSH2 0x120 DUP6 ADD MSTORE PUSH2 0x120 DUP2 ADD MLOAD PUSH2 0x140 DUP6 ADD MSTORE PUSH2 0x140 DUP2 ADD MLOAD PUSH2 0x160 DUP6 ADD MSTORE PUSH2 0x160 DUP2 ADD MLOAD PUSH2 0x180 DUP6 ADD MSTORE PUSH2 0x6B1 PUSH2 0x180 DUP3 ADD MLOAD DUP4 DUP7 ADD SWAP1 PUSH2 0x1AED JUMP JUMPDEST ADD MLOAD ISZERO ISZERO PUSH2 0x1C0 DUP4 ADD MSTORE SUB SWAP1 RETURN JUMPDEST PUSH4 0x4E487B71 PUSH1 0xE0 SHL PUSH1 0x0 MSTORE PUSH1 0x21 PUSH1 0x4 MSTORE PUSH1 0x24 PUSH1 0x0 REVERT JUMPDEST CALLVALUE PUSH2 0x193 JUMPI PUSH1 0x0 CALLDATASIZE PUSH1 0x3 NOT ADD SLT PUSH2 0x193 JUMPI PUSH1 0x6 SLOAD PUSH1 0x7 SLOAD PUSH1 0x40 DUP1 MLOAD SWAP3 DUP4 MSTORE PUSH1 0x20 DUP4 ADD SWAP2 SWAP1 SWAP2 MSTORE SELFBALANCE SWAP1 DUP3 ADD MSTORE PUSH1 0x60 SWAP1 RETURN JUMPDEST SUB SWAP1 RETURN JUMPDEST PUSH1 0x0 CALLDATASIZE PUSH1 0x3 NOT ADD SLT PUSH2 0x193 JUMPI CALLVALUE ISZERO PUSH2 0x727 JUMPI PUSH2 0x27 CALLVALUE PUSH1 0x6 SLOAD PUSH2 0x1BEE JUMP JUMPDEST PUSH1 0x40 MLOAD PUSH3 0x461BCD PUSH1 0xE5 SHL DUP2 MSTORE PUSH1 0x20 PUSH1 0x4 DUP3 ADD MSTORE PUSH1 0xD PUSH1 0x24 DUP3 ADD MSTORE PUSH13 0x9AEAE6E840E6CADCC8408AA89 PUSH1 0x9B SHL PUSH1 0x44 DUP3 ADD MSTORE PUSH1 0x64 SWAP1 REVERT JUMPDEST CALLVALUE PUSH2 0x193 JUMPI PUSH1 0x0 CALLDATASIZE PUSH1 0x3 NOT ADD SLT PUSH2 0x193 JUMPI PUSH1 0x20 PUSH1 0x6 SLOAD PUSH1 0x40 MLOAD SWAP1 DUP2 MSTORE RETURN JUMPDEST CALLVALUE PUSH2 0x193 JUMPI PUSH1 0x20 CALLDATASIZE PUSH1 0x3 NOT ADD SLT PUSH2 0x193 JUMPI PUSH1 0x1 PUSH1 0x1 PUSH1 0xA0 SHL SUB PUSH2 0x79B PUSH2 0x1AFA JUMP JUMPDEST AND PUSH1 0x0 MSTORE PUSH1 0x4 PUSH1 0x20 MSTORE PUSH1 0x20 PUSH1 0xFF PUSH1 0x40 PUSH1 0x0 KECCAK256 SLOAD AND PUSH1 0x40 MLOAD SWAP1 ISZERO ISZERO DUP2 MSTORE RETURN JUMPDEST CALLVALUE PUSH2 0x193 JUMPI PUSH1 0x0 CALLDATASIZE PUSH1 0x3 NOT ADD SLT PUSH2 0x193 JUMPI PUSH1 0x20 PUSH1 0x40 MLOAD PUSH2 0xC4E0 DUP2 MSTORE RETURN JUMPDEST CALLVALUE PUSH2 0x193 JUMPI PUSH1 0x20 CALLDATASIZE PUSH1 0x3 NOT ADD SLT PUSH2 0x193 JUMPI PUSH2 0x705 PUSH2 0x802 PUSH1 0x4 CALLDATALOAD PUSH2 0x7FD PUSH1 0x1 SLOAD DUP3 LT PUSH2 0x1BFB JUMP JUMPDEST PUSH2 0x1CEA JUMP JUMPDEST PUSH1 0x40 MLOAD SWAP2 DUP3 SWAP2 PUSH1 0x20 DUP4 MSTORE PUSH1 0x20 DUP4 ADD SWAP1 PUSH2 0x1AAD JUMP JUMPDEST CALLVALUE PUSH2 0x193 JUMPI PUSH1 0x20 CALLDATASIZE PUSH1 0x3 NOT ADD SLT PUSH2 0x193 JUMPI PUSH1 0x4 CALLDATALOAD PUSH2 0x837 PUSH1 0x1 SLOAD DUP3 LT PUSH2 0x1BFB JUMP JUMPDEST PUSH1 0x0 MSTORE PUSH1 0x2 PUSH1 0x20 MSTORE PUSH1 0x40 PUSH1 0x0 KECCAK256 PUSH1 0x9 DUP2 ADD SLOAD PUSH2 0x705 PUSH1 0xB PUSH1 0xA DUP5 ADD SLOAD SWAP4 ADD SLOAD PUSH1 0x40 MLOAD SWAP4 DUP5 SWAP4 DUP5 PUSH1 0x40 SWAP2 SWAP5 SWAP4 SWAP3 PUSH1 0x60 DUP3 ADD SWAP6 DUP3 MSTORE PUSH1 0x20 DUP3 ADD MSTORE ADD MSTORE JUMP JUMPDEST CALLVALUE PUSH2 0x193 JUMPI PUSH1 0x20 CALLDATASIZE PUSH1 0x3 NOT ADD SLT PUSH2 0x193 JUMPI PUSH2 0x88C PUSH2 0x1AFA JUMP JUMPDEST PUSH1 0x0 SLOAD PUSH1 0x1 PUSH1 0x1 PUSH1 0xA0 SHL SUB SWAP2 SWAP1 PUSH2 0x8A6 SWAP1 DUP4 AND CALLER EQ PUSH2 0x1B89 JUMP JUMPDEST AND DUP1 PUSH1 0x0 MSTORE PUSH1 0x4 PUSH1 0x20 MSTORE PUSH1 0xFF PUSH1 0x40 PUSH1 0x0 KECCAK256 SLOAD AND ISZERO PUSH2 0x921 JUMPI DUP1 PUSH1 0x0 MSTORE PUSH1 0x4 PUSH1 0x20 MSTORE PUSH1 0x40 PUSH1 0x0 KECCAK256 PUSH1 0xFF NOT DUP2 SLOAD AND SWAP1 SSTORE PUSH1 0x5 SLOAD DUP1 ISZERO PUSH2 0x90B JUMPI PUSH1 0x0 NOT ADD PUSH1 0x5 SSTORE PUSH32 0x25FC2460244A2FFF1D6879302EA1D6F3E684E599D76C012A22E42D5BB61CC5D7 PUSH1 0x0 DUP1 LOG2 STOP JUMPDEST PUSH4 0x4E487B71 PUSH1 0xE0 SHL PUSH1 0x0 MSTORE PUSH1 0x11 PUSH1 0x4 MSTORE PUSH1 0x24 PUSH1 0x0 REVERT JUMPDEST PUSH1 0x40 MLOAD PUSH3 0x461BCD PUSH1 0xE5 SHL DUP2 MSTORE PUSH1 0x20 PUSH1 0x4 DUP3 ADD MSTORE PUSH1 0xE PUSH1 0x24 DUP3 ADD MSTORE PUSH14 0x139BDD081C9959DA5CDD195C9959 PUSH1 0x92 SHL PUSH1 0x44 DUP3 ADD MSTORE PUSH1 0x64 SWAP1 REVERT JUMPDEST CALLVALUE PUSH2 0x193 JUMPI PUSH1 0xA0 CALLDATASIZE PUSH1 0x3 NOT ADD SLT PUSH2 0x193 JUMPI PUSH1 0x4 CALLDATALOAD PUSH8 0xFFFFFFFFFFFFFFFF DUP2 GT PUSH2 0x193 JUMPI PUSH2 0x988 SWAP1 CALLDATASIZE SWAP1 PUSH1 0x4 ADD PUSH2 0x1B42 JUMP JUMPDEST PUSH1 0x24 CALLDATALOAD PUSH8 0xFFFFFFFFFFFFFFFF DUP2 GT PUSH2 0x193 JUMPI PUSH2 0x9A8 SWAP1 CALLDATASIZE SWAP1 PUSH1 0x4 ADD PUSH2 0x1B42 JUMP JUMPDEST SWAP1 PUSH1 0x44 SWAP2 DUP3 CALLDATALOAD PUSH8 0xFFFFFFFFFFFFFFFF DUP2 GT PUSH2 0x193 JUMPI PUSH2 0x9CB SWAP1 CALLDATASIZE SWAP1 PUSH1 0x4 ADD PUSH2 0x1B42 JUMP JUMPDEST PUSH1 0x84 CALLDATALOAD SWAP3 SWAP1 SWAP2 SWAP1 PUSH1 0x1 PUSH1 0x1 PUSH1 0xA0 SHL SUB DUP5 AND DUP5 SUB PUSH2 0x193 JUMPI PUSH1 0x64 SWAP5 DUP6 CALLDATALOAD ISZERO PUSH2 0x1058 JUMPI PUSH1 0x1 PUSH1 0x1 PUSH1 0xA0 SHL SUB DUP6 AND ISZERO PUSH2 0x101E JUMPI DUP2 MLOAD ISZERO PUSH2 0xFE6 JUMPI DUP3 MLOAD ISZERO PUSH2 0xFB2 JUMPI PUSH1 0x6 SLOAD DUP7 CALLDATALOAD GT PUSH2 0xF6F JUMPI POP PUSH1 0x1 SLOAD SWAP4 PUSH2 0xC4E0 NUMBER ADD NUMBER GT PUSH2 0x90B JUMPI PUSH1 0x40 MLOAD SWAP4 PUSH2 0xA30 DUP6 PUSH2 0x19AC JUMP JUMPDEST DUP6 DUP6 MSTORE DUP3 PUSH1 0x20 DUP7 ADD MSTORE DUP4 PUSH1 0x40 DUP7 ADD MSTORE PUSH1 0x60 DUP6 ADD MSTORE DUP6 CALLDATALOAD PUSH1 0x80 DUP6 ADD MSTORE PUSH1 0x1 DUP1 PUSH1 0xA0 SHL SUB DUP2 AND PUSH1 0xA0 DUP6 ADD MSTORE NUMBER PUSH1 0xC0 DUP6 ADD MSTORE NUMBER PUSH1 0xE0 DUP6 ADD MSTORE PUSH2 0xC4E0 NUMBER ADD PUSH2 0x100 DUP6 ADD MSTORE PUSH1 0x0 PUSH2 0x120 DUP6 ADD MSTORE PUSH1 0x0 PUSH2 0x140 DUP6 ADD MSTORE PUSH1 0x0 PUSH2 0x160 DUP6 ADD MSTORE PUSH1 0x0 PUSH2 0x180 DUP6 ADD MSTORE PUSH1 0x0 PUSH2 0x1A0 DUP6 ADD MSTORE DUP5 PUSH1 0x0 MSTORE PUSH1 0x2 PUSH1 0x20 MSTORE PUSH1 0x40 PUSH1 0x0 KECCAK256 DUP5 MLOAD DUP2 SSTORE PUSH1 0x20 DUP6 ADD MLOAD DUP1 MLOAD SWAP1 PUSH8 0xFFFFFFFFFFFFFFFF DUP3 GT PUSH2 0xDB9 JUMPI DUP2 SWAP1 PUSH2 0xAD0 PUSH1 0x1 DUP6 ADD SLOAD PUSH2 0x1972 JUMP JUMPDEST PUSH1 0x1F DUP2 GT PUSH2 0xF1C JUMPI JUMPDEST POP PUSH1 0x20 SWAP1 PUSH1 0x1F DUP4 GT PUSH1 0x1 EQ PUSH2 0xEAA JUMPI PUSH1 0x0 SWAP3 PUSH2 0xE9F JUMPI JUMPDEST POP POP DUP2 PUSH1 0x1 SHL SWAP2 PUSH1 0x0 NOT SWAP1 PUSH1 0x3 SHL SHR NOT AND OR PUSH1 0x1 DUP3 ADD SSTORE JUMPDEST PUSH1 0x40 DUP6 ADD MLOAD DUP1 MLOAD SWAP1 PUSH8 0xFFFFFFFFFFFFFFFF DUP3 GT PUSH2 0xDB9 JUMPI DUP2 SWAP1 PUSH2 0xB2E PUSH1 0x2 DUP6 ADD SLOAD PUSH2 0x1972 JUMP JUMPDEST PUSH1 0x1F DUP2 GT PUSH2 0xE4C JUMPI JUMPDEST POP PUSH1 0x20 SWAP1 PUSH1 0x1F DUP4 GT PUSH1 0x1 EQ PUSH2 0xDDA JUMPI PUSH1 0x0 SWAP3 PUSH2 0xDCF JUMPI JUMPDEST POP POP DUP2 PUSH1 0x1 SHL SWAP2 PUSH1 0x0 NOT SWAP1 PUSH1 0x3 SHL SHR NOT AND OR PUSH1 0x2 DUP3 ADD SSTORE JUMPDEST PUSH1 0x60 DUP6 ADD MLOAD DUP1 MLOAD SWAP1 PUSH8 0xFFFFFFFFFFFFFFFF DUP3 GT PUSH2 0xDB9 JUMPI PUSH2 0xB8A PUSH1 0x3 DUP5 ADD SLOAD PUSH2 0x1972 JUMP JUMPDEST PUSH1 0x1F DUP2 GT PUSH2 0xD72 JUMPI JUMPDEST POP PUSH1 0x20 SWAP1 PUSH1 0x1F DUP4 GT PUSH1 0x1 EQ PUSH2 0xCFF JUMPI PUSH1 0xC SWAP4 SWAP3 SWAP2 PUSH1 0x0 SWAP2 DUP4 PUSH2 0xCF4 JUMPI JUMPDEST POP POP DUP2 PUSH1 0x1 SHL SWAP2 PUSH1 0x0 NOT SWAP1 PUSH1 0x3 SHL SHR NOT AND OR PUSH1 0x3 DUP3 ADD SSTORE JUMPDEST PUSH1 0x80 DUP7 ADD MLOAD PUSH1 0x4 DUP3 ADD SSTORE PUSH1 0x5 DUP2 ADD PUSH1 0x1 DUP1 PUSH1 0xA0 SHL SUB PUSH1 0xA0 DUP9 ADD MLOAD AND PUSH12 0xFFFFFFFFFFFFFFFFFFFFFFFF PUSH1 0xA0 SHL DUP3 SLOAD AND OR SWAP1 SSTORE PUSH1 0xC0 DUP7 ADD MLOAD PUSH1 0x6 DUP3 ADD SSTORE PUSH1 0xE0 DUP7 ADD MLOAD PUSH1 0x7 DUP3 ADD SSTORE PUSH2 0x100 DUP7 ADD MLOAD PUSH1 0x8 DUP3 ADD SSTORE PUSH2 0x120 DUP7 ADD MLOAD PUSH1 0x9 DUP3 ADD SSTORE PUSH2 0x140 DUP7 ADD MLOAD PUSH1 0xA DUP3 ADD SSTORE PUSH2 0x160 DUP7 ADD MLOAD PUSH1 0xB DUP3 ADD SSTORE ADD SWAP4 PUSH2 0x180 DUP2 ADD MLOAD SWAP4 PUSH1 0x4 DUP6 LT ISZERO PUSH2 0x6BF JUMPI DUP6 PUSH2 0xCC6 SWAP6 PUSH2 0xCD4 SWAP4 PUSH1 0xFF PUSH2 0xFF00 PUSH2 0x1A0 PUSH32 0x76292BB7E2503E8E04E1424E695FF7505F896FB50B910F71A30A90C3D30A3802 SWAP12 SLOAD SWAP4 ADD MLOAD ISZERO ISZERO PUSH1 0x8 SHL AND SWAP3 AND SWAP1 PUSH2 0xFFFF NOT AND OR OR SWAP1 SSTORE PUSH2 0xCA1 DUP9 CALLDATALOAD PUSH1 0x7 SLOAD PUSH2 0x1BEE JUMP JUMPDEST PUSH1 0x7 SSTORE PUSH2 0xCAF PUSH1 0x1 SLOAD PUSH2 0x1BDF JUMP JUMPDEST PUSH1 0x1 SSTORE PUSH1 0x40 MLOAD SWAP5 DUP6 SWAP5 PUSH1 0x80 DUP7 MSTORE PUSH1 0x80 DUP7 ADD SWAP1 PUSH2 0x1AAD JUMP JUMPDEST SWAP1 DUP5 DUP3 SUB PUSH1 0x20 DUP7 ADD MSTORE PUSH2 0x1AAD JUMP JUMPDEST SWAP6 CALLDATALOAD PUSH1 0x40 DUP4 ADD MSTORE NUMBER PUSH2 0xC4E0 ADD PUSH1 0x60 DUP4 ADD MSTORE PUSH1 0x1 PUSH1 0x1 PUSH1 0xA0 SHL SUB AND SWAP5 SUB SWAP1 LOG3 STOP JUMPDEST ADD MLOAD SWAP1 POP DUP11 DUP1 PUSH2 0xBB0 JUMP JUMPDEST SWAP1 PUSH1 0x3 DUP5 ADD PUSH1 0x0 MSTORE PUSH1 0x20 PUSH1 0x0 KECCAK256 SWAP2 PUSH1 0x0 JUMPDEST PUSH1 0x1F NOT DUP6 AND DUP2 LT PUSH2 0xD5A JUMPI POP SWAP2 DUP4 SWAP2 PUSH1 0x1 SWAP4 PUSH1 0xC SWAP7 SWAP6 PUSH1 0x1F NOT DUP2 AND LT PUSH2 0xD41 JUMPI JUMPDEST POP POP POP DUP2 SHL ADD PUSH1 0x3 DUP3 ADD SSTORE PUSH2 0xBC8 JUMP JUMPDEST ADD MLOAD PUSH1 0x0 NOT PUSH1 0xF8 DUP5 PUSH1 0x3 SHL AND SHR NOT AND SWAP1 SSTORE DUP11 DUP1 DUP1 PUSH2 0xD31 JUMP JUMPDEST SWAP2 SWAP3 PUSH1 0x20 PUSH1 0x1 DUP2 SWAP3 DUP7 DUP6 ADD MLOAD DUP2 SSTORE ADD SWAP5 ADD SWAP3 ADD PUSH2 0xD10 JUMP JUMPDEST PUSH1 0x3 DUP5 ADD PUSH1 0x0 MSTORE PUSH1 0x20 PUSH1 0x0 KECCAK256 PUSH1 0x1F DUP5 ADD PUSH1 0x5 SHR DUP2 ADD PUSH1 0x20 DUP6 LT PUSH2 0xDB2 JUMPI JUMPDEST PUSH1 0x1F DUP4 ADD PUSH1 0x5 SHR DUP3 ADD DUP2 LT PUSH2 0xDA6 JUMPI POP POP PUSH2 0xB93 JUMP JUMPDEST PUSH1 0x0 DUP2 SSTORE PUSH1 0x1 ADD PUSH2 0xD90 JUMP JUMPDEST POP DUP1 PUSH2 0xD90 JUMP JUMPDEST PUSH4 0x4E487B71 PUSH1 0xE0 SHL PUSH1 0x0 MSTORE PUSH1 0x41 PUSH1 0x4 MSTORE PUSH1 0x24 PUSH1 0x0 REVERT JUMPDEST ADD MLOAD SWAP1 POP DUP10 DUP1 PUSH2 0xB4E JUMP JUMPDEST SWAP3 POP PUSH1 0x2 DUP5 ADD PUSH1 0x0 MSTORE PUSH1 0x20 PUSH1 0x0 KECCAK256 SWAP1 PUSH1 0x0 SWAP4 JUMPDEST PUSH1 0x1F NOT DUP5 AND DUP6 LT PUSH2 0xE31 JUMPI PUSH1 0x1 SWAP5 POP DUP4 PUSH1 0x1F NOT DUP2 AND LT PUSH2 0xE18 JUMPI JUMPDEST POP POP POP DUP2 SHL ADD PUSH1 0x2 DUP3 ADD SSTORE PUSH2 0xB66 JUMP JUMPDEST ADD MLOAD PUSH1 0x0 NOT PUSH1 0xF8 DUP5 PUSH1 0x3 SHL AND SHR NOT AND SWAP1 SSTORE DUP10 DUP1 DUP1 PUSH2 0xE08 JUMP JUMPDEST DUP2 DUP2 ADD MLOAD DUP4 SSTORE PUSH1 0x20 SWAP5 DUP6 ADD SWAP5 PUSH1 0x1 SWAP1 SWAP4 ADD SWAP3 SWAP1 SWAP2 ADD SWAP1 PUSH2 0xDED JUMP JUMPDEST SWAP1 SWAP2 POP PUSH1 0x2 DUP5 ADD PUSH1 0x0 MSTORE PUSH1 0x20 PUSH1 0x0 KECCAK256 PUSH1 0x1F DUP5 ADD PUSH1 0x5 SHR DUP2 ADD PUSH1 0x20 DUP6 LT PUSH2 0xE98 JUMPI JUMPDEST SWAP1 DUP5 SWAP4 SWAP3 SWAP2 JUMPDEST PUSH1 0x1F DUP4 ADD PUSH1 0x5 SHR DUP3 ADD DUP2 LT PUSH2 0xE89 JUMPI POP POP PUSH2 0xB37 JUMP JUMPDEST PUSH1 0x0 DUP2 SSTORE DUP6 SWAP5 POP PUSH1 0x1 ADD PUSH2 0xE73 JUMP JUMPDEST POP DUP1 PUSH2 0xE6D JUMP JUMPDEST ADD MLOAD SWAP1 POP DUP10 DUP1 PUSH2 0xAF0 JUMP JUMPDEST SWAP3 POP PUSH1 0x1 DUP5 ADD PUSH1 0x0 MSTORE PUSH1 0x20 PUSH1 0x0 KECCAK256 SWAP1 PUSH1 0x0 SWAP4 JUMPDEST PUSH1 0x1F NOT DUP5 AND DUP6 LT PUSH2 0xF01 JUMPI PUSH1 0x1 SWAP5 POP DUP4 PUSH1 0x1F NOT DUP2 AND LT PUSH2 0xEE8 JUMPI JUMPDEST POP POP POP DUP2 SHL ADD PUSH1 0x1 DUP3 ADD SSTORE PUSH2 0xB08 JUMP JUMPDEST ADD MLOAD PUSH1 0x0 NOT PUSH1 0xF8 DUP5 PUSH1 0x3 SHL AND SHR NOT AND SWAP1 SSTORE DUP10 DUP1 DUP1 PUSH2 0xED8 JUMP JUMPDEST DUP2 DUP2 ADD MLOAD DUP4 SSTORE PUSH1 0x20 SWAP5 DUP6 ADD SWAP5 PUSH1 0x1 SWAP1 SWAP4 ADD SWAP3 SWAP1 SWAP2 ADD SWAP1 PUSH2 0xEBD JUMP JUMPDEST SWAP1 SWAP2 POP PUSH1 0x1 DUP5 ADD PUSH1 0x0 MSTORE PUSH1 0x20 PUSH1 0x0 KECCAK256 PUSH1 0x1F DUP5 ADD PUSH1 0x5 SHR DUP2 ADD PUSH1 0x20 DUP6 LT PUSH2 0xF68 JUMPI JUMPDEST SWAP1 DUP5 SWAP4 SWAP3 SWAP2 JUMPDEST PUSH1 0x1F DUP4 ADD PUSH1 0x5 SHR DUP3 ADD DUP2 LT PUSH2 0xF59 JUMPI POP POP PUSH2 0xAD9 JUMP JUMPDEST PUSH1 0x0 DUP2 SSTORE DUP6 SWAP5 POP PUSH1 0x1 ADD PUSH2 0xF43 JUMP JUMPDEST POP DUP1 PUSH2 0xF3D JUMP JUMPDEST DUP6 SWAP1 PUSH32 0x496E73756666696369656E742074726561737572792066756E64730000000000 PUSH1 0x40 MLOAD SWAP2 PUSH3 0x461BCD PUSH1 0xE5 SHL DUP4 MSTORE PUSH1 0x20 PUSH1 0x4 DUP5 ADD MSTORE PUSH1 0x1B PUSH1 0x24 DUP5 ADD MSTORE DUP3 ADD MSTORE REVERT JUMPDEST DUP6 SWAP1 PUSH14 0x151A5D1B19481C995C5D5A5C9959 PUSH1 0x92 SHL PUSH1 0x40 MLOAD SWAP2 PUSH3 0x461BCD PUSH1 0xE5 SHL DUP4 MSTORE PUSH1 0x20 PUSH1 0x4 DUP5 ADD MSTORE PUSH1 0xE PUSH1 0x24 DUP5 ADD MSTORE DUP3 ADD MSTORE REVERT JUMPDEST DUP6 SWAP1 PUSH18 0x10DB1D58881B985B59481C995C5D5A5C9959 PUSH1 0x72 SHL PUSH1 0x40 MLOAD SWAP2 PUSH3 0x461BCD PUSH1 0xE5 SHL DUP4 MSTORE PUSH1 0x20 PUSH1 0x4 DUP5 ADD MSTORE PUSH1 0x12 PUSH1 0x24 DUP5 ADD MSTORE DUP3 ADD MSTORE REVERT JUMPDEST DUP6 SWAP1 PUSH20 0x496E76616C696420636C75622061646472657373 PUSH1 0x60 SHL PUSH1 0x40 MLOAD SWAP2 PUSH3 0x461BCD PUSH1 0xE5 SHL DUP4 MSTORE PUSH1 0x20 PUSH1 0x4 DUP5 ADD MSTORE PUSH1 0x14 PUSH1 0x24 DUP5 ADD MSTORE DUP3 ADD MSTORE REVERT JUMPDEST DUP6 SWAP1 PUSH32 0x416D6F756E74206D7573742062652067726561746572207468616E2030000000 PUSH1 0x40 MLOAD SWAP2 PUSH3 0x461BCD PUSH1 0xE5 SHL DUP4 MSTORE PUSH1 0x20 PUSH1 0x4 DUP5 ADD MSTORE PUSH1 0x1D PUSH1 0x24 DUP5 ADD MSTORE DUP3 ADD MSTORE REVERT JUMPDEST CALLVALUE PUSH2 0x193 JUMPI PUSH1 0x20 DUP1 PUSH1 0x3 NOT CALLDATASIZE ADD SLT PUSH2 0x193 JUMPI PUSH1 0x4 CALLDATALOAD SWAP1 PUSH2 0x10BE PUSH1 0x1 SLOAD DUP4 LT PUSH2 0x1BFB JUMP JUMPDEST DUP2 PUSH1 0x0 MSTORE PUSH1 0x2 DUP2 MSTORE PUSH1 0x40 PUSH1 0x0 KECCAK256 PUSH1 0x8 DUP2 ADD SLOAD NUMBER GT ISZERO PUSH2 0x1300 JUMPI PUSH1 0xC DUP2 ADD DUP1 SLOAD PUSH1 0xFF DUP2 AND PUSH1 0x4 DUP2 LT ISZERO PUSH2 0x6BF JUMPI PUSH2 0x12BB JUMPI PUSH1 0x5 SLOAD PUSH1 0x1E DUP2 MUL SWAP1 DUP1 DUP3 DIV PUSH1 0x1E EQ SWAP1 ISZERO OR ISZERO PUSH2 0x90B JUMPI PUSH1 0x64 SWAP1 DIV PUSH1 0xB DUP5 ADD SLOAD LT PUSH1 0x0 EQ PUSH2 0x11AB JUMPI POP PUSH32 0x998833B30B605B93F7766ECF44D7197F231D0B90F0FE2F095BDB6CB72AA2E806 SWAP3 PUSH1 0x40 SWAP2 PUSH1 0x2 PUSH1 0xFF NOT DUP3 SLOAD AND OR SWAP1 SSTORE PUSH2 0x1156 PUSH1 0x4 DUP5 ADD SLOAD PUSH1 0x7 SLOAD PUSH2 0x1C47 JUMP JUMPDEST PUSH1 0x7 SSTORE PUSH14 0x145D5BDC9D5B481B9BDD081B595D PUSH1 0x92 SHL PUSH1 0x9 DUP5 ADD SLOAD SWAP2 PUSH1 0xA DUP6 ADD SLOAD PUSH2 0x118D DUP6 MLOAD SWAP7 PUSH1 0x80 DUP9 MSTORE PUSH1 0x1 PUSH1 0x80 DUP10 ADD SWAP2 ADD PUSH2 0x1C54 JUMP JUMPDEST SWAP4 DUP3 DUP8 ADD MSTORE DUP5 DUP7 ADD MSTORE DUP5 DUP4 SUB SWAP3 DUP4 PUSH1 0x60 DUP8 ADD MSTORE PUSH1 0xE DUP2 MSTORE ADD MSTORE ADD SWAP1 LOG2 STOP JUMPDEST PUSH1 0x9 DUP4 ADD SWAP2 DUP3 SLOAD SWAP2 PUSH1 0xA DUP6 ADD SWAP3 DUP4 SLOAD LT PUSH1 0x0 EQ PUSH2 0x122B JUMPI POP SWAP2 PUSH32 0xDDFF51FD8DBFE33DDF85A9E8EECCE2A27FF3AA39D0E754D4A9C41AD2642A54C SWAP5 SWAP2 PUSH2 0x1218 SWAP5 SWAP4 PUSH1 0x1 PUSH1 0xFF NOT DUP3 SLOAD AND OR SWAP1 SSTORE PUSH1 0x4 DUP5 ADD SLOAD SWAP2 SLOAD SWAP1 SLOAD SWAP2 PUSH1 0x40 MLOAD SWAP6 DUP7 SWAP6 PUSH1 0x80 DUP8 MSTORE PUSH1 0x1 PUSH1 0x80 DUP9 ADD SWAP2 ADD PUSH2 0x1C54 JUMP JUMPDEST SWAP4 DUP6 ADD MSTORE PUSH1 0x40 DUP5 ADD MSTORE PUSH1 0x60 DUP4 ADD MSTORE SUB SWAP1 LOG2 STOP JUMPDEST SWAP5 PUSH1 0x40 SWAP4 PUSH17 0x4D616A6F7269747920766F746564204E4F PUSH1 0x78 SHL SWAP3 PUSH1 0x2 PUSH32 0x998833B30B605B93F7766ECF44D7197F231D0B90F0FE2F095BDB6CB72AA2E806 SWAP9 PUSH1 0xFF NOT AND OR SWAP1 SSTORE PUSH2 0x1280 PUSH1 0x4 DUP8 ADD SLOAD PUSH1 0x7 SLOAD PUSH2 0x1C47 JUMP JUMPDEST PUSH1 0x7 SSTORE SLOAD SWAP3 SLOAD PUSH2 0x129D DUP6 MLOAD SWAP7 PUSH1 0x80 DUP9 MSTORE PUSH1 0x1 PUSH1 0x80 DUP10 ADD SWAP2 ADD PUSH2 0x1C54 JUMP JUMPDEST SWAP4 DUP3 DUP8 ADD MSTORE DUP5 DUP7 ADD MSTORE DUP5 DUP4 SUB SWAP3 DUP4 PUSH1 0x60 DUP8 ADD MSTORE PUSH1 0x11 DUP2 MSTORE ADD MSTORE ADD SWAP1 LOG2 STOP JUMPDEST PUSH1 0x40 MLOAD PUSH3 0x461BCD PUSH1 0xE5 SHL DUP2 MSTORE PUSH1 0x4 DUP2 ADD DUP6 SWAP1 MSTORE PUSH1 0x1A PUSH1 0x24 DUP3 ADD MSTORE PUSH32 0x50726F706F73616C20616C72656164792066696E616C697A6564000000000000 PUSH1 0x44 DUP3 ADD MSTORE PUSH1 0x64 SWAP1 REVERT JUMPDEST PUSH1 0x40 MLOAD PUSH3 0x461BCD PUSH1 0xE5 SHL DUP2 MSTORE PUSH1 0x4 DUP2 ADD DUP4 SWAP1 MSTORE PUSH1 0x17 PUSH1 0x24 DUP3 ADD MSTORE PUSH32 0x566F74696E6720706572696F64206E6F7420656E646564000000000000000000 PUSH1 0x44 DUP3 ADD MSTORE PUSH1 0x64 SWAP1 REVERT JUMPDEST CALLVALUE PUSH2 0x193 JUMPI PUSH1 0x40 CALLDATASIZE PUSH1 0x3 NOT ADD SLT PUSH2 0x193 JUMPI PUSH2 0x135E PUSH2 0x1B10 JUMP JUMPDEST PUSH1 0x4 CALLDATALOAD PUSH1 0x0 MSTORE PUSH1 0x3 PUSH1 0x20 MSTORE PUSH1 0x40 PUSH1 0x0 KECCAK256 SWAP1 PUSH1 0x1 DUP1 PUSH1 0xA0 SHL SUB AND PUSH1 0x0 MSTORE PUSH1 0x20 MSTORE PUSH1 0x20 PUSH1 0xFF PUSH1 0x40 PUSH1 0x0 KECCAK256 SLOAD AND PUSH1 0x40 MLOAD SWAP1 ISZERO ISZERO DUP2 MSTORE RETURN JUMPDEST CALLVALUE PUSH2 0x193 JUMPI PUSH1 0x20 CALLDATASIZE PUSH1 0x3 NOT ADD SLT PUSH2 0x193 JUMPI PUSH2 0x13AB PUSH2 0x1AFA JUMP JUMPDEST PUSH1 0x0 SLOAD PUSH1 0x1 PUSH1 0x1 PUSH1 0xA0 SHL SUB SWAP2 SWAP1 PUSH2 0x13C5 SWAP1 DUP4 AND CALLER EQ PUSH2 0x1B89 JUMP JUMPDEST AND DUP1 ISZERO PUSH2 0x146A JUMPI DUP1 PUSH1 0x0 MSTORE PUSH1 0x4 PUSH1 0x20 MSTORE PUSH1 0xFF PUSH1 0x40 PUSH1 0x0 KECCAK256 SLOAD AND PUSH2 0x1430 JUMPI DUP1 PUSH1 0x0 MSTORE PUSH1 0x4 PUSH1 0x20 MSTORE PUSH1 0x40 PUSH1 0x0 KECCAK256 PUSH1 0x1 PUSH1 0xFF NOT DUP3 SLOAD AND OR SWAP1 SSTORE PUSH2 0x1406 PUSH1 0x5 SLOAD PUSH2 0x1BDF JUMP JUMPDEST PUSH1 0x5 SSTORE PUSH32 0xB6BE2187D059CC2A55FE29E0E503B566E1E0F8C8780096E185429350ACFFD3DD PUSH1 0x0 DUP1 LOG2 STOP JUMPDEST PUSH1 0x40 MLOAD PUSH3 0x461BCD PUSH1 0xE5 SHL DUP2 MSTORE PUSH1 0x20 PUSH1 0x4 DUP3 ADD MSTORE PUSH1 0x12 PUSH1 0x24 DUP3 ADD MSTORE PUSH18 0x105B1C9958591E481C9959DA5CDD195C9959 PUSH1 0x72 SHL PUSH1 0x44 DUP3 ADD MSTORE PUSH1 0x64 SWAP1 REVERT JUMPDEST PUSH1 0x40 MLOAD PUSH3 0x461BCD PUSH1 0xE5 SHL DUP2 MSTORE PUSH1 0x20 PUSH1 0x4 DUP3 ADD MSTORE PUSH1 0xF PUSH1 0x24 DUP3 ADD MSTORE PUSH15 0x496E76616C69642061646472657373 PUSH1 0x88 SHL PUSH1 0x44 DUP3 ADD MSTORE PUSH1 0x64 SWAP1 REVERT JUMPDEST CALLVALUE PUSH2 0x193 JUMPI PUSH1 0x20 DUP1 PUSH1 0x3 NOT CALLDATASIZE ADD SLT PUSH2 0x193 JUMPI PUSH1 0x4 CALLDATALOAD PUSH2 0x14C3 PUSH1 0x1 SLOAD DUP3 LT PUSH2 0x1BFB JUMP JUMPDEST DUP1 PUSH1 0x0 MSTORE PUSH1 0x2 DUP3 MSTORE PUSH1 0x40 PUSH1 0x0 KECCAK256 SWAP2 PUSH1 0xC DUP4 ADD SWAP3 DUP4 SLOAD SWAP4 PUSH1 0xFF DUP6 AND PUSH1 0x4 DUP2 LT ISZERO PUSH2 0x6BF JUMPI PUSH1 0x1 SUB PUSH2 0x16C5 JUMPI PUSH1 0x5 DUP3 ADD DUP1 SLOAD PUSH1 0x1 PUSH1 0x1 PUSH1 0xA0 SHL SUB SWAP3 SWAP1 DUP4 AND CALLER SUB PUSH2 0x1680 JUMPI PUSH1 0xFF DUP8 PUSH1 0x8 SHR AND PUSH2 0x1642 JUMPI SELFBALANCE SWAP1 PUSH1 0x4 DUP6 ADD SWAP8 DUP9 SLOAD DUP1 SWAP4 LT PUSH2 0x15FD JUMPI PUSH2 0xFFFF NOT AND PUSH2 0x103 OR SWAP1 SSTORE PUSH1 0x7 SLOAD PUSH2 0x1538 SWAP2 SWAP1 PUSH2 0x1C47 JUMP JUMPDEST PUSH1 0x7 SSTORE PUSH1 0x0 DUP1 DUP1 DUP1 DUP6 DUP6 SLOAD AND DUP11 SLOAD SWAP1 GAS CALL RETURNDATASIZE ISZERO PUSH2 0x15F8 JUMPI RETURNDATASIZE PUSH2 0x1559 DUP2 PUSH2 0x1B26 JUMP JUMPDEST SWAP1 PUSH2 0x1567 PUSH1 0x40 MLOAD SWAP3 DUP4 PUSH2 0x19E5 JUMP JUMPDEST DUP2 MSTORE PUSH1 0x0 DUP7 RETURNDATASIZE SWAP3 ADD RETURNDATACOPY JUMPDEST ISZERO PUSH2 0x15C1 JUMPI PUSH32 0x6B9820C25130DCD241E9A9FE5AB064D0F681180254293FE6453E6B13CFB0D65A SWAP4 SWAP3 SWAP2 PUSH2 0x15BC SWAP2 SLOAD AND SWAP6 SLOAD SWAP2 PUSH1 0x40 DUP1 MLOAD SWAP5 DUP6 SWAP5 DUP6 MSTORE DUP5 ADD MSTORE PUSH1 0x1 PUSH1 0x40 DUP5 ADD SWAP2 ADD PUSH2 0x1C54 JUMP JUMPDEST SUB SWAP1 LOG3 STOP JUMPDEST PUSH1 0x40 MLOAD PUSH3 0x461BCD PUSH1 0xE5 SHL DUP2 MSTORE PUSH1 0x4 DUP2 ADD DUP6 SWAP1 MSTORE PUSH1 0xF PUSH1 0x24 DUP3 ADD MSTORE PUSH15 0x151C985B9CD9995C8819985A5B1959 PUSH1 0x8A SHL PUSH1 0x44 DUP3 ADD MSTORE PUSH1 0x64 SWAP1 REVERT JUMPDEST PUSH2 0x1571 JUMP JUMPDEST PUSH1 0x40 MLOAD PUSH3 0x461BCD PUSH1 0xE5 SHL DUP2 MSTORE PUSH1 0x4 DUP2 ADD DUP9 SWAP1 MSTORE PUSH1 0x1D PUSH1 0x24 DUP3 ADD MSTORE PUSH32 0x496E73756666696369656E7420636F6E74726163742062616C616E6365000000 PUSH1 0x44 DUP3 ADD MSTORE PUSH1 0x64 SWAP1 REVERT JUMPDEST PUSH1 0x40 MLOAD PUSH3 0x461BCD PUSH1 0xE5 SHL DUP2 MSTORE PUSH1 0x4 DUP2 ADD DUP7 SWAP1 MSTORE PUSH1 0x16 PUSH1 0x24 DUP3 ADD MSTORE PUSH22 0x119D5B991CC8185B1C9958591E481C995B19585CD959 PUSH1 0x52 SHL PUSH1 0x44 DUP3 ADD MSTORE PUSH1 0x64 SWAP1 REVERT JUMPDEST PUSH1 0x40 MLOAD PUSH3 0x461BCD PUSH1 0xE5 SHL DUP2 MSTORE PUSH1 0x4 DUP2 ADD DUP7 SWAP1 MSTORE PUSH1 0x1C PUSH1 0x24 DUP3 ADD MSTORE PUSH32 0x4F6E6C7920636C75622063616E2077697468647261772066756E647300000000 PUSH1 0x44 DUP3 ADD MSTORE PUSH1 0x64 SWAP1 REVERT JUMPDEST PUSH1 0x40 MLOAD PUSH3 0x461BCD PUSH1 0xE5 SHL DUP2 MSTORE PUSH1 0x4 DUP2 ADD DUP5 SWAP1 MSTORE PUSH1 0x15 PUSH1 0x24 DUP3 ADD MSTORE PUSH21 0x141C9BDC1BDCD85B081B9BDD08185C1C1C9BDD9959 PUSH1 0x5A SHL PUSH1 0x44 DUP3 ADD MSTORE PUSH1 0x64 SWAP1 REVERT JUMPDEST CALLVALUE PUSH2 0x193 JUMPI PUSH1 0x20 DUP1 PUSH1 0x3 NOT CALLDATASIZE ADD SLT PUSH2 0x193 JUMPI PUSH8 0xFFFFFFFFFFFFFFFF PUSH1 0x4 CALLDATALOAD DUP2 DUP2 GT PUSH2 0x193 JUMPI CALLDATASIZE PUSH1 0x23 DUP3 ADD SLT ISZERO PUSH2 0x193 JUMPI DUP1 PUSH1 0x4 ADD CALLDATALOAD SWAP2 DUP3 GT PUSH2 0x193 JUMPI PUSH1 0x5 PUSH1 0x24 CALLDATASIZE DUP5 DUP4 SHL DUP5 ADD DUP3 ADD GT PUSH2 0x193 JUMPI PUSH1 0x0 SLOAD PUSH1 0x1 PUSH1 0x1 PUSH1 0xA0 SHL SUB SWAP4 SWAP1 PUSH2 0x1769 SWAP1 DUP6 AND CALLER EQ PUSH2 0x1B89 JUMP JUMPDEST PUSH1 0x0 JUMPDEST DUP6 DUP2 LT PUSH2 0x1775 JUMPI STOP JUMPDEST DUP3 DUP2 DUP6 SHL DUP4 ADD ADD CALLDATALOAD SWAP1 DUP6 DUP3 AND DUP1 SWAP3 SUB PUSH2 0x193 JUMPI DUP2 PUSH2 0x17AD SWAP3 PUSH1 0x0 MSTORE PUSH1 0x4 DUP10 MSTORE PUSH1 0x40 PUSH1 0x0 KECCAK256 DUP1 SLOAD PUSH1 0xFF DUP2 AND ISZERO PUSH2 0x17B2 JUMPI JUMPDEST POP POP POP PUSH2 0x1BDF JUMP JUMPDEST PUSH2 0x176C JUMP JUMPDEST PUSH1 0xFF NOT AND PUSH1 0x1 OR SWAP1 SSTORE DUP6 SLOAD PUSH2 0x17C6 SWAP1 PUSH2 0x1BDF JUMP JUMPDEST DUP7 SSTORE PUSH32 0xB6BE2187D059CC2A55FE29E0E503B566E1E0F8C8780096E185429350ACFFD3DD PUSH1 0x0 DUP1 LOG2 DUP9 DUP1 DUP1 PUSH2 0x17A5 JUMP JUMPDEST CALLVALUE PUSH2 0x193 JUMPI PUSH1 0x0 CALLDATASIZE PUSH1 0x3 NOT ADD SLT PUSH2 0x193 JUMPI PUSH1 0x60 PUSH1 0x5 SLOAD PUSH1 0x40 MLOAD SWAP1 PUSH2 0xC4E0 DUP3 MSTORE PUSH1 0x1E PUSH1 0x20 DUP4 ADD MSTORE PUSH1 0x40 DUP3 ADD MSTORE RETURN JUMPDEST CALLVALUE PUSH2 0x193 JUMPI PUSH1 0x0 CALLDATASIZE PUSH1 0x3 NOT ADD SLT PUSH2 0x193 JUMPI PUSH1 0x20 PUSH1 0x7 SLOAD PUSH1 0x40 MLOAD SWAP1 DUP2 MSTORE RETURN JUMPDEST CALLVALUE PUSH2 0x193 JUMPI PUSH1 0x20 CALLDATASIZE PUSH1 0x3 NOT ADD SLT PUSH2 0x193 JUMPI PUSH1 0x4 CALLDATALOAD PUSH1 0x0 MSTORE PUSH1 0x2 PUSH1 0x20 MSTORE PUSH1 0x40 PUSH1 0x0 KECCAK256 DUP1 SLOAD PUSH1 0x1 DUP3 ADD PUSH2 0x1870 SWAP1 PUSH2 0x1A07 JUMP JUMPDEST SWAP2 PUSH2 0x187D PUSH1 0x2 DUP3 ADD PUSH2 0x1A07 JUMP JUMPDEST PUSH2 0x1889 PUSH1 0x3 DUP4 ADD PUSH2 0x1A07 JUMP JUMPDEST SWAP2 PUSH1 0x4 DUP2 ADD SLOAD SWAP3 PUSH1 0x1 PUSH1 0xA0 SHL PUSH1 0x1 SWAP1 SUB PUSH1 0x5 DUP4 ADD SLOAD AND PUSH1 0x6 DUP4 ADD SLOAD PUSH1 0x7 DUP5 ADD SLOAD PUSH1 0x8 DUP6 ADD SLOAD SWAP2 PUSH1 0x9 DUP7 ADD SLOAD SWAP4 PUSH1 0xA DUP8 ADD SLOAD SWAP6 PUSH1 0xB DUP9 ADD SLOAD SWAP8 PUSH1 0xC ADD SLOAD SWAP9 PUSH1 0x40 MLOAD SWAP13 DUP14 SWAP13 DUP14 MSTORE DUP13 PUSH2 0x1C0 PUSH1 0x20 DUP2 SWAP3 ADD MSTORE DUP14 ADD PUSH2 0x18E3 SWAP2 PUSH2 0x1AAD JUMP JUMPDEST DUP13 DUP2 SUB PUSH1 0x40 DUP15 ADD MSTORE PUSH2 0x18F4 SWAP2 PUSH2 0x1AAD JUMP JUMPDEST DUP12 DUP2 SUB PUSH1 0x60 DUP14 ADD MSTORE PUSH2 0x1905 SWAP2 PUSH2 0x1AAD JUMP JUMPDEST SWAP9 PUSH1 0x80 DUP12 ADD MSTORE PUSH1 0xA0 DUP11 ADD MSTORE PUSH1 0xC0 DUP10 ADD MSTORE PUSH1 0xE0 DUP9 ADD MSTORE PUSH2 0x100 DUP8 ADD MSTORE PUSH2 0x120 DUP7 ADD MSTORE PUSH2 0x140 DUP6 ADD MSTORE PUSH2 0x160 DUP5 ADD MSTORE PUSH2 0x180 DUP4 ADD PUSH1 0xFF DUP3 AND SWAP1 PUSH2 0x1945 SWAP2 PUSH2 0x1AED JUMP JUMPDEST PUSH1 0x8 SHR PUSH1 0xFF AND ISZERO ISZERO PUSH2 0x1A0 DUP4 ADD MSTORE SUB SWAP1 RETURN JUMPDEST CALLVALUE PUSH2 0x193 JUMPI PUSH1 0x0 CALLDATASIZE PUSH1 0x3 NOT ADD SLT PUSH2 0x193 JUMPI PUSH1 0x20 SWAP1 PUSH1 0x5 SLOAD DUP2 MSTORE RETURN JUMPDEST SWAP1 PUSH1 0x1 DUP3 DUP2 SHR SWAP3 AND DUP1 ISZERO PUSH2 0x19A2 JUMPI JUMPDEST PUSH1 0x20 DUP4 LT EQ PUSH2 0x198C JUMPI JUMP JUMPDEST PUSH4 0x4E487B71 PUSH1 0xE0 SHL PUSH1 0x0 MSTORE PUSH1 0x22 PUSH1 0x4 MSTORE PUSH1 0x24 PUSH1 0x0 REVERT JUMPDEST SWAP2 PUSH1 0x7F AND SWAP2 PUSH2 0x1981 JUMP JUMPDEST PUSH2 0x1C0 DUP2 ADD SWAP1 DUP2 LT PUSH8 0xFFFFFFFFFFFFFFFF DUP3 GT OR PUSH2 0xDB9 JUMPI PUSH1 0x40 MSTORE JUMP JUMPDEST PUSH1 0x40 DUP2 ADD SWAP1 DUP2 LT PUSH8 0xFFFFFFFFFFFFFFFF DUP3 GT OR PUSH2 0xDB9 JUMPI PUSH1 0x40 MSTORE JUMP JUMPDEST SWAP1 PUSH1 0x1F DUP1 NOT SWAP2 ADD AND DUP2 ADD SWAP1 DUP2 LT PUSH8 0xFFFFFFFFFFFFFFFF DUP3 GT OR PUSH2 0xDB9 JUMPI PUSH1 0x40 MSTORE JUMP JUMPDEST SWAP1 PUSH1 0x40 MLOAD SWAP2 DUP3 PUSH1 0x0 DUP3 SLOAD SWAP3 PUSH2 0x1A1B DUP5 PUSH2 0x1972 JUMP JUMPDEST SWAP1 DUP2 DUP5 MSTORE PUSH1 0x1 SWAP5 DUP6 DUP2 AND SWAP1 DUP2 PUSH1 0x0 EQ PUSH2 0x1A8A JUMPI POP PUSH1 0x1 EQ PUSH2 0x1A47 JUMPI JUMPDEST POP POP PUSH2 0x1A45 SWAP3 POP SUB DUP4 PUSH2 0x19E5 JUMP JUMPDEST JUMP JUMPDEST SWAP1 SWAP4 SWAP2 POP PUSH1 0x0 MSTORE PUSH1 0x20 SWAP1 DUP2 PUSH1 0x0 KECCAK256 SWAP4 PUSH1 0x0 SWAP2 JUMPDEST DUP2 DUP4 LT PUSH2 0x1A72 JUMPI POP POP PUSH2 0x1A45 SWAP4 POP DUP3 ADD ADD CODESIZE DUP1 PUSH2 0x1A37 JUMP JUMPDEST DUP6 SLOAD DUP9 DUP5 ADD DUP6 ADD MSTORE SWAP5 DUP6 ADD SWAP5 DUP8 SWAP5 POP SWAP2 DUP4 ADD SWAP2 PUSH2 0x1A5A JUMP JUMPDEST SWAP2 POP POP PUSH2 0x1A45 SWAP5 POP PUSH1 0x20 SWAP3 POP PUSH1 0xFF NOT AND DUP3 DUP5 ADD MSTORE ISZERO ISZERO PUSH1 0x5 SHL DUP3 ADD ADD CODESIZE DUP1 PUSH2 0x1A37 JUMP JUMPDEST SWAP2 SWAP1 DUP3 MLOAD SWAP3 DUP4 DUP3 MSTORE PUSH1 0x0 JUMPDEST DUP5 DUP2 LT PUSH2 0x1AD9 JUMPI POP POP DUP3 PUSH1 0x0 PUSH1 0x20 DUP1 SWAP5 SWAP6 DUP5 ADD ADD MSTORE PUSH1 0x1F DUP1 NOT SWAP2 ADD AND ADD ADD SWAP1 JUMP JUMPDEST PUSH1 0x20 DUP2 DUP4 ADD DUP2 ADD MLOAD DUP5 DUP4 ADD DUP3 ADD MSTORE ADD PUSH2 0x1AB8 JUMP JUMPDEST SWAP1 PUSH1 0x4 DUP3 LT ISZERO PUSH2 0x6BF JUMPI MSTORE JUMP JUMPDEST PUSH1 0x4 CALLDATALOAD SWAP1 PUSH1 0x1 PUSH1 0x1 PUSH1 0xA0 SHL SUB DUP3 AND DUP3 SUB PUSH2 0x193 JUMPI JUMP JUMPDEST PUSH1 0x24 CALLDATALOAD SWAP1 PUSH1 0x1 PUSH1 0x1 PUSH1 0xA0 SHL SUB DUP3 AND DUP3 SUB PUSH2 0x193 JUMPI JUMP JUMPDEST PUSH8 0xFFFFFFFFFFFFFFFF DUP2 GT PUSH2 0xDB9 JUMPI PUSH1 0x1F ADD PUSH1 0x1F NOT AND PUSH1 0x20 ADD SWAP1 JUMP JUMPDEST DUP2 PUSH1 0x1F DUP3 ADD SLT ISZERO PUSH2 0x193 JUMPI DUP1 CALLDATALOAD SWAP1 PUSH2 0x1B59 DUP3 PUSH2 0x1B26 JUMP JUMPDEST SWAP3 PUSH2 0x1B67 PUSH1 0x40 MLOAD SWAP5 DUP6 PUSH2 0x19E5 JUMP JUMPDEST DUP3 DUP5 MSTORE PUSH1 0x20 DUP4 DUP4 ADD ADD GT PUSH2 0x193 JUMPI DUP2 PUSH1 0x0 SWAP3 PUSH1 0x20 DUP1 SWAP4 ADD DUP4 DUP7 ADD CALLDATACOPY DUP4 ADD ADD MSTORE SWAP1 JUMP JUMPDEST ISZERO PUSH2 0x1B90 JUMPI JUMP JUMPDEST PUSH1 0x40 MLOAD PUSH3 0x461BCD PUSH1 0xE5 SHL DUP2 MSTORE PUSH1 0x20 PUSH1 0x4 DUP3 ADD MSTORE PUSH1 0x21 PUSH1 0x24 DUP3 ADD MSTORE PUSH32 0x4F6E6C792061646D696E2063616E2063616C6C20746869732066756E6374696F PUSH1 0x44 DUP3 ADD MSTORE PUSH1 0x37 PUSH1 0xF9 SHL PUSH1 0x64 DUP3 ADD MSTORE PUSH1 0x84 SWAP1 REVERT JUMPDEST PUSH1 0x0 NOT DUP2 EQ PUSH2 0x90B JUMPI PUSH1 0x1 ADD SWAP1 JUMP JUMPDEST SWAP2 SWAP1 DUP3 ADD DUP1 SWAP3 GT PUSH2 0x90B JUMPI JUMP JUMPDEST ISZERO PUSH2 0x1C02 JUMPI JUMP JUMPDEST PUSH1 0x40 MLOAD PUSH3 0x461BCD PUSH1 0xE5 SHL DUP2 MSTORE PUSH1 0x20 PUSH1 0x4 DUP3 ADD MSTORE PUSH1 0x17 PUSH1 0x24 DUP3 ADD MSTORE PUSH32 0x50726F706F73616C20646F6573206E6F74206578697374000000000000000000 PUSH1 0x44 DUP3 ADD MSTORE PUSH1 0x64 SWAP1 REVERT JUMPDEST SWAP2 SWAP1 DUP3 SUB SWAP2 DUP3 GT PUSH2 0x90B JUMPI JUMP JUMPDEST SWAP1 PUSH1 0x0 SWAP3 SWAP2 DUP1 SLOAD SWAP2 PUSH2 0x1C65 DUP4 PUSH2 0x1972 JUMP JUMPDEST SWAP2 DUP3 DUP3 MSTORE PUSH1 0x1 SWAP4 DUP5 DUP2 AND SWAP1 DUP2 PUSH1 0x0 EQ PUSH2 0x1CC7 JUMPI POP PUSH1 0x1 EQ PUSH2 0x1C87 JUMPI JUMPDEST POP POP POP POP JUMP JUMPDEST SWAP1 SWAP2 SWAP4 SWAP5 POP PUSH1 0x0 MSTORE PUSH1 0x20 SWAP3 DUP4 PUSH1 0x0 KECCAK256 SWAP3 DUP5 PUSH1 0x0 SWAP5 JUMPDEST DUP4 DUP7 LT PUSH2 0x1CB3 JUMPI POP POP POP POP ADD ADD SWAP1 CODESIZE DUP1 DUP1 DUP1 PUSH2 0x1C81 JUMP JUMPDEST DUP1 SLOAD DUP6 DUP8 ADD DUP4 ADD MSTORE SWAP5 ADD SWAP4 DUP6 SWAP1 DUP3 ADD PUSH2 0x1C9C JUMP JUMPDEST SWAP3 SWAP5 POP POP POP PUSH1 0x20 SWAP4 SWAP5 POP PUSH1 0xFF NOT AND DUP4 DUP4 ADD MSTORE ISZERO ISZERO PUSH1 0x5 SHL ADD ADD SWAP1 CODESIZE DUP1 DUP1 DUP1 PUSH2 0x1C81 JUMP JUMPDEST PUSH1 0x0 MSTORE PUSH1 0x2 PUSH1 0x20 MSTORE PUSH1 0xFF PUSH1 0xC PUSH1 0x40 PUSH1 0x0 KECCAK256 ADD SLOAD AND PUSH1 0x4 DUP2 LT ISZERO PUSH2 0x6BF JUMPI DUP1 ISZERO PUSH2 0x1D89 JUMPI PUSH1 0x1 DUP2 EQ PUSH2 0x1D64 JUMPI PUSH1 0x2 EQ PUSH2 0x1D40 JUMPI PUSH1 0x40 MLOAD PUSH2 0x1D28 DUP2 PUSH2 0x19C9 JUMP JUMPDEST PUSH1 0x8 DUP2 MSTORE PUSH8 0x11561150D5551151 PUSH1 0xC2 SHL PUSH1 0x20 DUP3 ADD MSTORE SWAP1 JUMP JUMPDEST PUSH1 0x40 MLOAD PUSH2 0x1D4C DUP2 PUSH2 0x19C9 JUMP JUMPDEST PUSH1 0x8 DUP2 MSTORE PUSH8 0x1491529150D51151 PUSH1 0xC2 SHL PUSH1 0x20 DUP3 ADD MSTORE SWAP1 JUMP JUMPDEST POP PUSH1 0x40 MLOAD PUSH2 0x1D71 DUP2 PUSH2 0x19C9 JUMP JUMPDEST PUSH1 0x8 DUP2 MSTORE PUSH8 0x1054141493D59151 PUSH1 0xC2 SHL PUSH1 0x20 DUP3 ADD MSTORE SWAP1 JUMP JUMPDEST POP PUSH1 0x40 MLOAD PUSH2 0x1D96 DUP2 PUSH2 0x19C9 JUMP JUMPDEST PUSH1 0x6 DUP2 MSTORE PUSH6 0x414354495645 PUSH1 0xD0 SHL PUSH1 0x20 DUP3 ADD MSTORE SWAP1 JUMP INVALID LOG2 PUSH5 0x6970667358 0x22 SLT KECCAK256 EXTCODEHASH SWAP8 PUSH5 0x1889EA808E 0x24 0xC6 0xC1 PUSH3 0xE386E CALLER 0xAA 0xE4 PUSH13 0x31E05CA8DBE8F0A34486FFE64A PUSH5 0x736F6C6343 STOP ADDMOD EQ STOP CALLER "},"methodIdentifiers":{"QUORUM_PERCENTAGE()":"ee8a7c15","VOTING_PERIOD_BLOCKS()":"a29dfff3","admin()":"f851a440","createProposal(string,string,string,uint256,address)":"752d74d1","finalizeProposal(uint256)":"5652077c","fundTreasury()":"b9c18685","getGovernanceParams()":"078f6208","getProposal(uint256)":"c7f758a8","getProposalState(uint256)":"9080936f","getTreasuryInfo()":"c2939471","getVoteCounts(uint256)":"8a241f4c","hasUserVoted(uint256,address)":"dc296ae1","hasVoted(uint256,address)":"43859632","proposalCount()":"da35c664","proposals(uint256)":"013cf08b","registerVoter(address)":"38db6dd3","registerVotersBatch(address[])":"08356e00","registeredVoters(address)":"a9ff6df1","totalFundsAllocated()":"058702a1","totalFundsAvailable()":"ac1f7ca1","totalRegisteredVoters()":"00aa7464","unregisterVoter(address)":"7ed17751","vote(uint256,bool)":"c9d27afe","withdrawFunds(uint256)":"155dd5ee"}}}}}