{
  "_format": "hh-sol-artifact-1",
  "contractName": "ClubFundingDAO",
  "sourceName": "contracts/ClubFundingDAO.sol",
  "abi": [
    {
      "inputs": [],
      "stateMutability": "nonpayable",
      "type": "constructor"
    },
    {
      "anonymous": false,
      "inputs": [
        {
          "indexed": true,
          "internalType": "uint256",
          "name": "proposalID",
          "type": "uint256"
        },
        {
          "indexed": true,
          "internalType": "address",
          "name": "clubAddress",
          "type": "address"
        },
        {
          "indexed": false,
          "internalType": "uint256",
          "name": "amount",
          "type": "uint256"
        },
        {
          "indexed": false,
          "internalType": "string",
          "name": "clubName",
          "type": "string"
        }
      ],
      "name": "FundsReleased",
      "type": "event"
    },
    {
      "anonymous": false,
      "inputs": [
        {
          "indexed": true,
          "internalType": "uint256",
          "name": "proposalID",
          "type": "uint256"
        },
        {
          "indexed": false,
          "internalType": "string",
          "name": "clubName",
          "type": "string"
        },
        {
          "indexed": false,
          "internalType": "uint256",
          "name": "requestedAmount",
          "type": "uint256"
        },
        {
          "indexed": false,
          "internalType": "uint256",
          "name": "yesVotes",
          "type": "uint256"
        },
        {
          "indexed": false,
          "internalType": "uint256",
          "name": "noVotes",
          "type": "uint256"
        }
      ],
      "name": "ProposalApproved",
      "type": "event"
    },
    {
      "anonymous": false,
      "inputs": [
        {
          "indexed": true,
          "internalType": "uint256",
          "name": "proposalID",
          "type": "uint256"
        },
        {
          "indexed": false,
          "internalType": "string",
          "name": "clubName",
          "type": "string"
        },
        {
          "indexed": false,
          "internalType": "string",
          "name": "title",
          "type": "string"
        },
        {
          "indexed": false,
          "internalType": "uint256",
          "name": "requestedAmount",
          "type": "uint256"
        },
        {
          "indexed": true,
          "internalType": "address",
          "name": "clubAddress",
          "type": "address"
        },
        {
          "indexed": false,
          "internalType": "uint256",
          "name": "votingEndBlock",
          "type": "uint256"
        }
      ],
      "name": "ProposalCreated",
      "type": "event"
    },
    {
      "anonymous": false,
      "inputs": [
        {
          "indexed": true,
          "internalType": "uint256",
          "name": "proposalID",
          "type": "uint256"
        },
        {
          "indexed": false,
          "internalType": "string",
          "name": "clubName",
          "type": "string"
        },
        {
          "indexed": false,
          "internalType": "uint256",
          "name": "yesVotes",
          "type": "uint256"
        },
        {
          "indexed": false,
          "internalType": "uint256",
          "name": "noVotes",
          "type": "uint256"
        },
        {
          "indexed": false,
          "internalType": "string",
          "name": "reason",
          "type": "string"
        }
      ],
      "name": "ProposalRejected",
      "type": "event"
    },
    {
      "anonymous": false,
      "inputs": [
        {
          "indexed": false,
          "internalType": "uint256",
          "name": "amount",
          "type": "uint256"
        }
      ],
      "name": "TreasuryFunded",
      "type": "event"
    },
    {
      "anonymous": false,
      "inputs": [
        {
          "indexed": true,
          "internalType": "uint256",
          "name": "proposalID",
          "type": "uint256"
        },
        {
          "indexed": true,
          "internalType": "address",
          "name": "voter",
          "type": "address"
        },
        {
          "indexed": false,
          "internalType": "bool",
          "name": "choice",
          "type": "bool"
        },
        {
          "indexed": false,
          "internalType": "uint256",
          "name": "currentYesVotes",
          "type": "uint256"
        },
        {
          "indexed": false,
          "internalType": "uint256",
          "name": "currentNoVotes",
          "type": "uint256"
        }
      ],
      "name": "VoteCast",
      "type": "event"
    },
    {
      "anonymous": false,
      "inputs": [
        {
          "indexed": true,
          "internalType": "address",
          "name": "voter",
          "type": "address"
        }
      ],
      "name": "VoterRegistered",
      "type": "event"
    },
    {
      "anonymous": false,
      "inputs": [
        {
          "indexed": true,
          "internalType": "address",
          "name": "voter",
          "type": "address"
        }
      ],
      "name": "VoterUnregistered",
      "type": "event"
    },
    {
      "inputs": [],
      "name": "QUORUM_PERCENTAGE",
      "outputs": [
        {
          "internalType": "uint256",
          "name": "",
          "type": "uint256"
        }
      ],
      "stateMutability": "view",
      "type": "function"
    },
    {
      "inputs": [],
      "name": "VOTING_PERIOD_BLOCKS",
      "outputs": [
        {
          "internalType": "uint256",
          "name": "",
          "type": "uint256"
        }
      ],
      "stateMutability": "view",
      "type": "function"
    },
    {
      "inputs": [],
      "name": "admin",
      "outputs": [
        {
          "internalType": "address",
          "name": "",
          "type": "address"
        }
      ],
      "stateMutability": "view",
      "type": "function"
    },
    {
      "inputs": [
        {
          "internalType": "string",
          "name": "_clubName",
          "type": "string"
        },
        {
          "internalType": "string",
          "name": "_title",
          "type": "string"
        },
        {
          "internalType": "string",
          "name": "_description",
          "type": "string"
        },
        {
          "internalType": "uint256",
          "name": "_requestedAmount",
          "type": "uint256"
        },
        {
          "internalType": "address",
          "name": "_clubAddress",
          "type": "address"
        }
      ],
      "name": "createProposal",
      "outputs": [],
      "stateMutability": "nonpayable",
      "type": "function"
    },
    {
      "inputs": [
        {
          "internalType": "uint256",
          "name": "_proposalID",
          "type": "uint256"
        }
      ],
      "name": "finalizeProposal",
      "outputs": [],
      "stateMutability": "nonpayable",
      "type": "function"
    },
    {
      "inputs": [],
      "name": "fundTreasury",
      "outputs": [],
      "stateMutability": "payable",
      "type": "function"
    },
    {
      "inputs": [],
      "name": "getGovernanceParams",
      "outputs": [
        {
          "internalType": "uint256",
          "name": "votingPeriodBlocks",
          "type": "uint256"
        },
        {
          "internalType": "uint256",
          "name": "quorumPercentage",
          "type": "uint256"
        },
        {
          "internalType": "uint256",
          "name": "totalVoters",
          "type": "uint256"
        }
      ],
      "stateMutability": "view",
      "type": "function"
    },
    {
      "inputs": [
        {
          "internalType": "uint256",
          "name": "_proposalID",
          "type": "uint256"
        }
      ],
      "name": "getProposal",
      "outputs": [
        {
          "components": [
            {
              "internalType": "uint256",
              "name": "id",
              "type": "uint256"
            },
            {
              "internalType": "string",
              "name": "clubName",
              "type": "string"
            },
            {
              "internalType": "string",
              "name": "title",
              "type": "string"
            },
            {
              "internalType": "string",
              "name": "description",
              "type": "string"
            },
            {
              "internalType": "uint256",
              "name": "requestedAmount",
              "type": "uint256"
            },
            {
              "internalType": "address",
              "name": "clubAddress",
              "type": "address"
            },
            {
              "internalType": "uint256",
              "name": "createdAtBlock",
              "type": "uint256"
            },
            {
              "internalType": "uint256",
              "name": "votingStartBlock",
              "type": "uint256"
            },
            {
              "internalType": "uint256",
              "name": "votingEndBlock",
              "type": "uint256"
            },
            {
              "internalType": "uint256",
              "name": "yesVotes",
              "type": "uint256"
            },
            {
              "internalType": "uint256",
              "name": "noVotes",
              "type": "uint256"
            },
            {
              "internalType": "uint256",
              "name": "totalVoters",
              "type": "uint256"
            },
            {
              "internalType": "enum ClubFundingDAO.ProposalState",
              "name": "state",
              "type": "uint8"
            },
            {
              "internalType": "bool",
              "name": "fundsReleased",
              "type": "bool"
            }
          ],
          "internalType": "struct ClubFundingDAO.Proposal",
          "name": "",
          "type": "tuple"
        }
      ],
      "stateMutability": "view",
      "type": "function"
    },
    {
      "inputs": [
        {
          "internalType": "uint256",
          "name": "_proposalID",
          "type": "uint256"
        }
      ],
      "name": "getProposalState",
      "outputs": [
        {
          "internalType": "string",
          "name": "",
          "type": "string"
        }
      ],
      "stateMutability": "view",
      "type": "function"
    },
    {
      "inputs": [],
      "name": "getTreasuryInfo",
      "outputs": [
        {
          "internalType": "uint256",
          "name": "available",
          "type": "uint256"
        },
        {
          "internalType": "uint256",
          "name": "allocated",
          "type": "uint256"
        },
        {
          "internalType": "uint256",
          "name": "totalBalance",
          "type": "uint256"
        }
      ],
      "stateMutability": "view",
      "type": "function"
    },
    {
      "inputs": [
        {
          "internalType": "uint256",
          "name": "_proposalID",
          "type": "uint256"
        }
      ],
      "name": "getVoteCounts",
      "outputs": [
        {
          "internalType": "uint256",
          "name": "yes",
          "type": "uint256"
        },
        {
          "internalType": "uint256",
          "name": "no",
          "type": "uint256"
        },
        {
          "internalType": "uint256",
          "name": "totalVoters",
          "type": "uint256"
        }
      ],
      "stateMutability": "view",
      "type": "function"
    },
    {
      "inputs": [
        {
          "internalType": "uint256",
          "name": "_proposalID",
          "type": "uint256"
        },
        {
          "internalType": "address",
          "name": "_voter",
          "type": "address"
        }
      ],
      "name": "hasUserVoted",
      "outputs": [
        {
          "internalType": "bool",
          "name": "",
          "type": "bool"
        }
      ],
      "stateMutability": "view",
      "type": "function"
    },
    {
      "inputs": [
        {
          "internalType": "uint256",
          "name": "",
          "type": "uint256"
        },
        {
          "internalType": "address",
          "name": "",
          "type": "address"
        }
      ],
      "name": "hasVoted",
      "outputs": [
        {
          "internalType": "bool",
          "name": "",
          "type": "bool"
        }
      ],
      "stateMutability": "view",
      "type": "function"
    },
    {
      "inputs": [],
      "name": "proposalCount",
      "outputs": [
        {
          "internalType": "uint256",
          "name": "",
          "type": "uint256"
        }
      ],
      "stateMutability": "view",
      "type": "function"
    },
    {
      "inputs": [
        {
          "internalType": "uint256",
          "name": "",
          "type": "uint256"
        }
      ],
      "name": "proposals",
      "outputs": [
        {
          "internalType": "uint256",
          "name": "id",
          "type": "uint256"
        },
        {
          "internalType": "string",
          "name": "clubName",
          "type": "string"
        },
        {
          "internalType": "string",
          "name": "title",
          "type": "string"
        },
        {
          "internalType": "string",
          "name": "description",
          "type": "string"
        },
        {
          "internalType": "uint256",
          "name": "requestedAmount",
          "type": "uint256"
        },
        {
          "internalType": "address",
          "name": "clubAddress",
          "type": "address"
        },
        {
          "internalType": "uint256",
          "name": "createdAtBlock",
          "type": "uint256"
        },
        {
          "internalType": "uint256",
          "name": "votingStartBlock",
          "type": "uint256"
        },
        {
          "internalType": "uint256",
          "name": "votingEndBlock",
          "type": "uint256"
        },
        {
          "internalType": "uint256",
          "name": "yesVotes",
          "type": "uint256"
        },
        {
          "internalType": "uint256",
          "name": "noVotes",
          "type": "uint256"
        },
        {
          "internalType": "uint256",
          "name": "totalVoters",
          "type": "uint256"
        },
        {
          "internalType": "enum ClubFundingDAO.ProposalState",
          "name": "state",
          "type": "uint8"
        },
        {
          "internalType": "bool",
          "name": "fundsReleased",
          "type": "bool"
        }
      ],
      "stateMutability": "view",
      "type": "function"
    },
    {
      "inputs": [
        {
          "internalType": "address",
          "name": "_voter",
          "type": "address"
        }
      ],
      "name": "registerVoter",
      "outputs": [],
      "stateMutability": "nonpayable",
      "type": "function"
    },
    {
      "inputs": [
        {
          "internalType": "address[]",
          "name": "_voters",
          "type": "address[]"
        }
      ],
      "name": "registerVotersBatch",
      "outputs": [],
      "stateMutability": "nonpayable",
      "type": "function"
    },
    {
      "inputs": [
        {
          "internalType": "address",
          "name": "",
          "type": "address"
        }
      ],
      "name": "registeredVoters",
      "outputs": [
        {
          "internalType": "bool",
          "name": "",
          "type": "bool"
        }
      ],
      "stateMutability": "view",
      "type": "function"
    },
    {
      "inputs": [],
      "name": "totalFundsAllocated",
      "outputs": [
        {
          "internalType": "uint256",
          "name": "",
          "type": "uint256"
        }
      ],
      "stateMutability": "view",
      "type": "function"
    },
    {
      "inputs": [],
      "name": "totalFundsAvailable",
      "outputs": [
        {
          "internalType": "uint256",
          "name": "",
          "type": "uint256"
        }
      ],
      "stateMutability": "view",
      "type": "function"
    },
    {
      "inputs": [],
      "name": "totalRegisteredVoters",
      "outputs": [
        {
          "internalType": "uint256",
          "name": "",
          "type": "uint256"
        }
      ],
      "stateMutability": "view",
      "type": "function"
    },
    {
      "inputs": [
        {
          "internalType": "address",
          "name": "_voter",
          "type": "address"
        }
      ],
      "name": "unregisterVoter",
      "outputs": [],
      "stateMutability": "nonpayable",
      "type": "function"
    },
    {
      "inputs": [
        {
          "internalType": "uint256",
          "name": "_proposalID",
          "type": "uint256"
        },
        {
          "internalType": "bool",
          "name": "_choice",
          "type": "bool"
        }
      ],
      "name": "vote",
      "outputs": [],
      "stateMutability": "nonpayable",
      "type": "function"
    },
    {
      "inputs": [
        {
          "internalType": "uint256",
          "name": "_proposalID",
          "type": "uint256"
        }
      ],
      "name": "withdrawFunds",
      "outputs": [],
      "stateMutability": "nonpayable",
      "type": "function"
    },
    {
      "stateMutability": "payable",
      "type": "receive"
    }
  ],
  "bytecode": "0x6080806040523461003c576000600181905560058190556006819055600781905580546001600160a01b03191633179055611de290816100428239f35b600080fdfe6080806040526004361015610056575b50361561001b57600080fd5b61002734600654611bee565b6006557fef7aff843f3420b45d9d058ff62be0d87a95132dea4a67b18925283ba05647dc6020604051348152a1005b60003560e01c908162aa74641461195757508063013cf08b14611840578063058702a114611822578063078f6208146117f557806308356e0014611702578063155dd5ee146114a157806338db6dd31461139257806343859632146113455780635652077c1461109b578063752d74d1146109575780637ed17751146108735780638a241f4c146108165780639080936f146107d6578063a29dfff3146107b9578063a9ff6df11461077a578063ac1f7ca11461075c578063b9c1868514610709578063c2939471146106d5578063c7f758a81461047d578063c9d27afe1461022d578063da35c6641461020f578063dc296ae1146101b4578063ee8a7c15146101985763f851a4401461016a573861000f565b34610193576000366003190112610193576000546040516001600160a01b039091168152602090f35b600080fd5b34610193576000366003190112610193576020604051601e8152f35b34610193576040366003190112610193576004356101d0611b10565b906101de6001548210611bfb565b600052600360205260406000209060018060a01b0316600052602052602060ff604060002054166040519015158152f35b34610193576000366003190112610193576020600154604051908152f35b34610193576040366003190112610193576004356024908135801515928382036101935761025e6001548410611bfb565b336000526020916004835260ff604060002054161561044057836000526002835260406000209160ff600c84015416600481101561042b576103e857600883015443116103a5578460005260038452604060002033600052845260ff604060002054166103625750600084815260038452604080822033835285529020805460ff191660011790551561034d57600981016102f98154611bdf565b90555b600b810161030a8154611bdf565b9055600a60098201549101549160405194855284015260408301527f77a255f45c79d26605c257d8dfc37f9a619f53963ddbed1e95aa0aab1c801cee60603393a3005b600a810161035b8154611bdf565b90556102fc565b83601e6064926040519262461bcd60e51b845260048401528201527f416c726561647920766f746564206f6e20746869732070726f706f73616c00006044820152fd5b8360176064926040519262461bcd60e51b845260048401528201527f566f74696e6720706572696f642068617320656e6465640000000000000000006044820152fd5b83601d6064926040519262461bcd60e51b845260048401528201527f50726f706f73616c206e6f7420696e20766f74696e6720706572696f640000006044820152fd5b50634e487b7160e01b60009081526021600452fd5b60405162461bcd60e51b815260048101849052601681840152752737ba1030903932b3b4b9ba32b932b2103b37ba32b960511b6044820152606490fd5b346101935760203660031901126101935760006101a060405161049f816119ac565b82815260606020820152606060408201526060808201528260808201528260a08201528260c08201528260e082015282610100820152826101208201528261014082015282610160820152826101808201520152600154610504600435918210611bfb565b60005260026020526040600020600c60405191610520836119ac565b8054835261053060018201611a07565b602084015261054160028201611a07565b604084015261055260038201611a07565b6060840152600481810154608085015260058201546001600160a01b031660a0850152600682015460c0850152600782015460e085015260088201546101008501526009820154610120850152600a820154610140850152600b8201546101608501529101549060ff821610156106bf578060ff80921661018084015260081c1615156101a0820152604051809160208252805160208301526101a061063d61060c60208401516101c060408701526101e0860190611aad565b610628604085015191601f199283888303016060890152611aad565b90606085015190868303016080870152611aad565b91608081015160a085015260018060a01b0360a08201511660c085015260c081015160e085015260e08101516101008501526101008101516101208501526101208101516101408501526101408101516101608501526101608101516101808501526106b161018082015183860190611aed565b015115156101c08301520390f35b634e487b7160e01b600052602160045260246000fd5b34610193576000366003190112610193576006546007546040805192835260208301919091524790820152606090f35b0390f35b60003660031901126101935734156107275761002734600654611bee565b60405162461bcd60e51b815260206004820152600d60248201526c09aeae6e840e6cadcc8408aa89609b1b6044820152606490fd5b34610193576000366003190112610193576020600654604051908152f35b34610193576020366003190112610193576001600160a01b0361079b611afa565b166000526004602052602060ff604060002054166040519015158152f35b3461019357600036600319011261019357602060405161c4e08152f35b34610193576020366003190112610193576107056108026004356107fd6001548210611bfb565b611cea565b604051918291602083526020830190611aad565b34610193576020366003190112610193576004356108376001548210611bfb565b600052600260205260406000206009810154610705600b600a840154930154604051938493846040919493926060820195825260208201520152565b346101935760203660031901126101935761088c611afa565b6000546001600160a01b0391906108a69083163314611b89565b1680600052600460205260ff604060002054161561092157806000526004602052604060002060ff198154169055600554801561090b57600019016005557f25fc2460244a2fff1d6879302ea1d6f3e684e599d76c012a22e42d5bb61cc5d7600080a2005b634e487b7160e01b600052601160045260246000fd5b60405162461bcd60e51b815260206004820152600e60248201526d139bdd081c9959da5cdd195c995960921b6044820152606490fd5b346101935760a03660031901126101935760043567ffffffffffffffff811161019357610988903690600401611b42565b60243567ffffffffffffffff8111610193576109a8903690600401611b42565b90604491823567ffffffffffffffff8111610193576109cb903690600401611b42565b608435929091906001600160a01b038416840361019357606494853515611058576001600160a01b0385161561101e57815115610fe657825115610fb257600654863511610f6f57506001549361c4e04301431161090b5760405193610a30856119ac565b85855282602086015283604086015260608501528535608085015260018060a01b03811660a08501524360c08501524360e085015261c4e04301610100850152600061012085015260006101408501526000610160850152600061018085015260006101a0850152846000526002602052604060002084518155602085015180519067ffffffffffffffff8211610db9578190610ad06001850154611972565b601f8111610f1c575b50602090601f8311600114610eaa57600092610e9f575b50508160011b916000199060031b1c19161760018201555b604085015180519067ffffffffffffffff8211610db9578190610b2e6002850154611972565b601f8111610e4c575b50602090601f8311600114610dda57600092610dcf575b50508160011b916000199060031b1c19161760028201555b606085015180519067ffffffffffffffff8211610db957610b8a6003840154611972565b601f8111610d72575b50602090601f8311600114610cff57600c93929160009183610cf4575b50508160011b916000199060031b1c19161760038201555b608086015160048201556005810160018060a01b0360a0880151166bffffffffffffffffffffffff60a01b82541617905560c0860151600682015560e0860151600782015561010086015160088201556101208601516009820155610140860151600a820155610160860151600b82015501936101808101519360048510156106bf5785610cc695610cd49360ff61ff006101a07f76292bb7e2503e8e04e1424e695ff7505f896fb50b910f71a30a90c3d30a38029b54930151151560081b1692169061ffff191617179055610ca18835600754611bee565b600755610caf600154611bdf565b600155604051948594608086526080860190611aad565b908482036020860152611aad565b953560408301524361c4e00160608301526001600160a01b0316940390a3005b015190508a80610bb0565b906003840160005260206000209160005b601f1985168110610d5a5750918391600193600c9695601f19811610610d41575b505050811b016003820155610bc8565b015160001960f88460031b161c191690558a8080610d31565b91926020600181928685015181550194019201610d10565b600384016000526020600020601f840160051c810160208510610db2575b601f830160051c82018110610da6575050610b93565b60008155600101610d90565b5080610d90565b634e487b7160e01b600052604160045260246000fd5b015190508980610b4e565b9250600284016000526020600020906000935b601f1984168510610e31576001945083601f19811610610e18575b505050811b016002820155610b66565b015160001960f88460031b161c19169055898080610e08565b81810151835560209485019460019093019290910190610ded565b909150600284016000526020600020601f840160051c810160208510610e98575b90849392915b601f830160051c82018110610e89575050610b37565b60008155859450600101610e73565b5080610e6d565b015190508980610af0565b9250600184016000526020600020906000935b601f1984168510610f01576001945083601f19811610610ee8575b505050811b016001820155610b08565b015160001960f88460031b161c19169055898080610ed8565b81810151835560209485019460019093019290910190610ebd565b909150600184016000526020600020601f840160051c810160208510610f68575b90849392915b601f830160051c82018110610f59575050610ad9565b60008155859450600101610f43565b5080610f3d565b85907f496e73756666696369656e742074726561737572792066756e647300000000006040519162461bcd60e51b835260206004840152601b6024840152820152fd5b85906d151a5d1b19481c995c5d5a5c995960921b6040519162461bcd60e51b835260206004840152600e6024840152820152fd5b85907110db1d58881b985b59481c995c5d5a5c995960721b6040519162461bcd60e51b83526020600484015260126024840152820152fd5b859073496e76616c696420636c7562206164647265737360601b6040519162461bcd60e51b83526020600484015260146024840152820152fd5b85907f416d6f756e74206d7573742062652067726561746572207468616e20300000006040519162461bcd60e51b835260206004840152601d6024840152820152fd5b346101935760208060031936011261019357600435906110be6001548310611bfb565b81600052600281526040600020600881015443111561130057600c8101805460ff811660048110156106bf576112bb57600554601e810290808204601e149015171561090b5760649004600b840154106000146111ab57507f998833b30b605b93f7766ecf44d7197f231d0b90f0fe2f095bdb6cb72aa2e80692604091600260ff198254161790556111566004840154600754611c47565b6007556d145d5bdc9d5b481b9bdd081b595d60921b600984015491600a85015461118d855196608088526001608089019101611c54565b93828701528486015284830392836060870152600e815201520190a2005b6009830191825491600a85019283541060001461122b5750917f0ddff51fd8dbfe33ddf85a9e8eecce2a27ff3aa39d0e754d4a9c41ad2642a54c94916112189493600160ff1982541617905560048401549154905491604051958695608087526001608088019101611c54565b93850152604084015260608301520390a2005b94604093704d616a6f7269747920766f746564204e4f60781b9260027f998833b30b605b93f7766ecf44d7197f231d0b90f0fe2f095bdb6cb72aa2e8069860ff19161790556112806004870154600754611c47565b60075554925461129d855196608088526001608089019101611c54565b938287015284860152848303928360608701526011815201520190a2005b60405162461bcd60e51b815260048101859052601a60248201527f50726f706f73616c20616c72656164792066696e616c697a65640000000000006044820152606490fd5b60405162461bcd60e51b815260048101839052601760248201527f566f74696e6720706572696f64206e6f7420656e6465640000000000000000006044820152606490fd5b346101935760403660031901126101935761135e611b10565b600435600052600360205260406000209060018060a01b0316600052602052602060ff604060002054166040519015158152f35b34610193576020366003190112610193576113ab611afa565b6000546001600160a01b0391906113c59083163314611b89565b16801561146a5780600052600460205260ff60406000205416611430578060005260046020526040600020600160ff19825416179055611406600554611bdf565b6005557fb6be2187d059cc2a55fe29e0e503b566e1e0f8c8780096e185429350acffd3dd600080a2005b60405162461bcd60e51b8152602060048201526012602482015271105b1c9958591e481c9959da5cdd195c995960721b6044820152606490fd5b60405162461bcd60e51b815260206004820152600f60248201526e496e76616c6964206164647265737360881b6044820152606490fd5b3461019357602080600319360112610193576004356114c36001548210611bfb565b8060005260028252604060002091600c83019283549360ff851660048110156106bf576001036116c5576005820180546001600160a01b039290831633036116805760ff8760081c16611642574790600485019788548093106115fd5761ffff19166101031790556007546115389190611c47565b6007556000808080858554168a54905af13d156115f8573d61155981611b26565b9061156760405192836119e5565b81526000863d92013e5b156115c1577f6b9820c25130dcd241e9a9fe5ab064d0f681180254293fe6453e6b13cfb0d65a9392916115bc9154169554916040805194859485528401526001604084019101611c54565b0390a3005b60405162461bcd60e51b815260048101859052600f60248201526e151c985b9cd9995c8819985a5b1959608a1b6044820152606490fd5b611571565b60405162461bcd60e51b815260048101889052601d60248201527f496e73756666696369656e7420636f6e74726163742062616c616e63650000006044820152606490fd5b60405162461bcd60e51b8152600481018690526016602482015275119d5b991cc8185b1c9958591e481c995b19585cd95960521b6044820152606490fd5b60405162461bcd60e51b815260048101869052601c60248201527f4f6e6c7920636c75622063616e2077697468647261772066756e6473000000006044820152606490fd5b60405162461bcd60e51b8152600481018490526015602482015274141c9bdc1bdcd85b081b9bdd08185c1c1c9bdd9959605a1b6044820152606490fd5b34610193576020806003193601126101935767ffffffffffffffff600435818111610193573660238201121561019357806004013591821161019357600560243684831b8401820111610193576000546001600160a01b0393906117699085163314611b89565b60005b85811061177557005b8281851b830101359085821680920361019357816117ad92600052600489526040600020805460ff8116156117b2575b505050611bdf565b61176c565b60ff1916600117905585546117c690611bdf565b86557fb6be2187d059cc2a55fe29e0e503b566e1e0f8c8780096e185429350acffd3dd600080a28880806117a5565b346101935760003660031901126101935760606005546040519061c4e08252601e60208301526040820152f35b34610193576000366003190112610193576020600754604051908152f35b34610193576020366003190112610193576004356000526002602052604060002080546001820161187090611a07565b9161187d60028201611a07565b61188960038301611a07565b91600481015492600160a01b6001900360058301541660068301546007840154600885015491600986015493600a87015495600b88015497600c0154986040519c8d9c8d528c6101c06020819201528d016118e391611aad565b8c810360408e01526118f491611aad565b8b810360608d015261190591611aad565b9860808b015260a08a015260c089015260e0880152610100870152610120860152610140850152610160840152610180830160ff82169061194591611aed565b60081c60ff1615156101a08301520390f35b34610193576000366003190112610193576020906005548152f35b90600182811c921680156119a2575b602083101461198c57565b634e487b7160e01b600052602260045260246000fd5b91607f1691611981565b6101c0810190811067ffffffffffffffff821117610db957604052565b6040810190811067ffffffffffffffff821117610db957604052565b90601f8019910116810190811067ffffffffffffffff821117610db957604052565b9060405191826000825492611a1b84611972565b908184526001948581169081600014611a8a5750600114611a47575b5050611a45925003836119e5565b565b9093915060005260209081600020936000915b818310611a72575050611a4593508201013880611a37565b85548884018501529485019487945091830191611a5a565b915050611a4594506020925060ff191682840152151560051b8201013880611a37565b919082519283825260005b848110611ad9575050826000602080949584010152601f8019910116010190565b602081830181015184830182015201611ab8565b9060048210156106bf5752565b600435906001600160a01b038216820361019357565b602435906001600160a01b038216820361019357565b67ffffffffffffffff8111610db957601f01601f191660200190565b81601f8201121561019357803590611b5982611b26565b92611b6760405194856119e5565b8284526020838301011161019357816000926020809301838601378301015290565b15611b9057565b60405162461bcd60e51b815260206004820152602160248201527f4f6e6c792061646d696e2063616e2063616c6c20746869732066756e6374696f6044820152603760f91b6064820152608490fd5b600019811461090b5760010190565b9190820180921161090b57565b15611c0257565b60405162461bcd60e51b815260206004820152601760248201527f50726f706f73616c20646f6573206e6f742065786973740000000000000000006044820152606490fd5b9190820391821161090b57565b9060009291805491611c6583611972565b918282526001938481169081600014611cc75750600114611c87575b50505050565b90919394506000526020928360002092846000945b838610611cb3575050505001019038808080611c81565b805485870183015294019385908201611c9c565b9294505050602093945060ff191683830152151560051b01019038808080611c81565b600052600260205260ff600c604060002001541660048110156106bf578015611d895760018114611d6457600214611d4057604051611d28816119c9565b600881526711561150d555115160c21b602082015290565b604051611d4c816119c9565b60088152671491529150d5115160c21b602082015290565b50604051611d71816119c9565b60088152671054141493d5915160c21b602082015290565b50604051611d96816119c9565b600681526541435449564560d01b60208201529056fea26469706673582212203f97641889ea808e24c6c1620e386e33aae46c31e05ca8dbe8f0a34486ffe64a64736f6c63430008140033",
  "linkReferences": {},
  "deployedLinkReferences": {}
}